{"abi":[{"type":"constructor","inputs":[{"name":"uniV4PoolManager","type":"address","internalType":"address"},{"name":"governance","type":"address","internalType":"address"}],"stateMutability":"nonpayable"},{"type":"function","name":"allUniV4FreeToUniV4Delta","inputs":[{"name":"asset","type":"address","internalType":"address"}],"outputs":[],"stateMutability":"nonpayable"},{"type":"function","name":"allowance","inputs":[{"name":"owner","type":"address","internalType":"address"},{"name":"spender","type":"address","internalType":"address"},{"name":"id","type":"uint256","internalType":"uint256"}],"outputs":[{"name":"allowed","type":"uint256","internalType":"uint256"}],"stateMutability":"view"},{"type":"function","name":"approve","inputs":[{"name":"spender","type":"address","internalType":"address"},{"name":"id","type":"uint256","internalType":"uint256"},{"name":"amount","type":"uint256","internalType":"uint256"}],"outputs":[{"name":"","type":"bool","internalType":"bool"}],"stateMutability":"nonpayable"},{"type":"function","name":"balanceOf","inputs":[{"name":"owner","type":"address","internalType":"address"},{"name":"id","type":"uint256","internalType":"uint256"}],"outputs":[{"name":"balance","type":"uint256","internalType":"uint256"}],"stateMutability":"view"},{"type":"function","name":"burnV4","inputs":[{"name":"from","type":"address","internalType":"address"},{"name":"asset","type":"address","internalType":"address"},{"name":"amount","type":"uint256","internalType":"uint256"}],"outputs":[],"stateMutability":"nonpayable"},{"type":"function","name":"eip712Domain","inputs":[],"outputs":[{"name":"fields","type":"bytes1","internalType":"bytes1"},{"name":"name","type":"string","internalType":"string"},{"name":"version","type":"string","internalType":"string"},{"name":"chainId","type":"uint256","internalType":"uint256"},{"name":"verifyingContract","type":"address","internalType":"address"},{"name":"salt","type":"bytes32","internalType":"bytes32"},{"name":"extensions","type":"uint256[]","internalType":"uint256[]"}],"stateMutability":"view"},{"type":"function","name":"execute","inputs":[{"name":"data","type":"bytes","internalType":"bytes"}],"outputs":[],"stateMutability":"nonpayable"},{"type":"function","name":"freeToUniV4Free","inputs":[{"name":"asset","type":"address","internalType":"address"},{"name":"amount","type":"uint256","internalType":"uint256"}],"outputs":[],"stateMutability":"nonpayable"},{"type":"function","name":"halfSpreadRay","inputs":[],"outputs":[{"name":"","type":"uint256","internalType":"uint256"}],"stateMutability":"view"},{"type":"function","name":"isOperator","inputs":[{"name":"owner","type":"address","internalType":"address"},{"name":"spender","type":"address","internalType":"address"}],"outputs":[{"name":"operator","type":"bool","internalType":"bool"}],"stateMutability":"view"},{"type":"function","name":"lastBlockUpdated","inputs":[],"outputs":[{"name":"","type":"uint256","internalType":"uint256"}],"stateMutability":"view"},{"type":"function","name":"mintV4","inputs":[{"name":"to","type":"address","internalType":"address"},{"name":"asset","type":"address","internalType":"address"},{"name":"amount","type":"uint256","internalType":"uint256"}],"outputs":[],"stateMutability":"nonpayable"},{"type":"function","name":"pullLiquid","inputs":[{"name":"from","type":"address","internalType":"address"},{"name":"asset","type":"address","internalType":"address"},{"name":"amount","type":"uint256","internalType":"uint256"}],"outputs":[],"stateMutability":"nonpayable"},{"type":"function","name":"pullToV4","inputs":[{"name":"from","type":"address","internalType":"address"},{"name":"asset","type":"address","internalType":"address"},{"name":"amount","type":"uint256","internalType":"uint256"}],"outputs":[],"stateMutability":"nonpayable"},{"type":"function","name":"pushFromV4","inputs":[{"name":"to","type":"address","internalType":"address"},{"name":"asset","type":"address","internalType":"address"},{"name":"amount","type":"uint256","internalType":"uint256"}],"outputs":[],"stateMutability":"nonpayable"},{"type":"function","name":"pushLiquid","inputs":[{"name":"to","type":"address","internalType":"address"},{"name":"asset","type":"address","internalType":"address"},{"name":"amount","type":"uint256","internalType":"uint256"}],"outputs":[],"stateMutability":"nonpayable"},{"type":"function","name":"saveNodeFee","inputs":[{"name":"asset","type":"address","internalType":"address"},{"name":"amount","type":"uint256","internalType":"uint256"}],"outputs":[],"stateMutability":"nonpayable"},{"type":"function","name":"setOperator","inputs":[{"name":"spender","type":"address","internalType":"address"},{"name":"approved","type":"bool","internalType":"bool"}],"outputs":[{"name":"","type":"bool","internalType":"bool"}],"stateMutability":"nonpayable"},{"type":"function","name":"supportsInterface","inputs":[{"name":"interfaceId","type":"bytes4","internalType":"bytes4"}],"outputs":[{"name":"supported","type":"bool","internalType":"bool"}],"stateMutability":"pure"},{"type":"function","name":"transfer","inputs":[{"name":"receiver","type":"address","internalType":"address"},{"name":"id","type":"uint256","internalType":"uint256"},{"name":"amount","type":"uint256","internalType":"uint256"}],"outputs":[{"name":"","type":"bool","internalType":"bool"}],"stateMutability":"nonpayable"},{"type":"function","name":"transferFrom","inputs":[{"name":"sender","type":"address","internalType":"address"},{"name":"receiver","type":"address","internalType":"address"},{"name":"id","type":"uint256","internalType":"uint256"},{"name":"amount","type":"uint256","internalType":"uint256"}],"outputs":[{"name":"","type":"bool","internalType":"bool"}],"stateMutability":"nonpayable"},{"type":"function","name":"uniV4DeltaToFree","inputs":[{"name":"asset","type":"address","internalType":"address"},{"name":"amount","type":"uint256","internalType":"uint256"}],"outputs":[],"stateMutability":"nonpayable"},{"type":"function","name":"unlockCallback","inputs":[{"name":"data","type":"bytes","internalType":"bytes"}],"outputs":[{"name":"","type":"bytes","internalType":"bytes"}],"stateMutability":"nonpayable"},{"type":"function","name":"updateNodes","inputs":[{"name":"nodes","type":"address[]","internalType":"address[]"}],"outputs":[],"stateMutability":"nonpayable"},{"type":"function","name":"userToUserLiquidTransfer","inputs":[{"name":"from","type":"address","internalType":"address"},{"name":"to","type":"address","internalType":"address"},{"name":"asset","type":"address","internalType":"address"},{"name":"amount","type":"uint256","internalType":"uint256"}],"outputs":[],"stateMutability":"nonpayable"},{"type":"function","name":"userToUserV4ClaimTransfer","inputs":[{"name":"from","type":"address","internalType":"address"},{"name":"to","type":"address","internalType":"address"},{"name":"asset","type":"address","internalType":"address"},{"name":"amount","type":"uint256","internalType":"uint256"}],"outputs":[],"stateMutability":"nonpayable"},{"type":"error","name":"AboveMaxWidth","inputs":[]},{"type":"error","name":"AssetsOutOfOrder","inputs":[]},{"type":"error","name":"Expired","inputs":[]},{"type":"error","name":"FillingTooMuch","inputs":[]},{"type":"error","name":"InsufficientBalance","inputs":[]},{"type":"error","name":"InsufficientPermission","inputs":[]},{"type":"error","name":"InvalidHookReturn","inputs":[]},{"type":"error","name":"InvalidIndices","inputs":[{"name":"outOfOrder","type":"bool","internalType":"bool"},{"name":"outOfBounds","type":"bool","internalType":"bool"},{"name":"i","type":"uint16","internalType":"AssetIndex"},{"name":"j","type":"uint16","internalType":"AssetIndex"}]},{"type":"error","name":"InvalidSignature","inputs":[]},{"type":"error","name":"LimitViolated","inputs":[]},{"type":"error","name":"NonceReuse","inputs":[]},{"type":"error","name":"NotGovernance","inputs":[]},{"type":"error","name":"NotNode","inputs":[]},{"type":"error","name":"NotThis","inputs":[]},{"type":"error","name":"NotUniswap","inputs":[]},{"type":"error","name":"OnlyOncePerBlock","inputs":[]},{"type":"error","name":"OrderAlreadyExecuted","inputs":[]},{"type":"error","name":"Overflow","inputs":[]},{"type":"error","name":"Unresolved","inputs":[]}],"bytecode":{"object":"0x61016060405234801562000011575f80fd5b506040516200502338038062005023833981016040819052620000349162000122565b6001600160a01b0382166080523060a0524660c052806060806200008c6040805180820182526008815267416e677374726f6d60c01b60208083019190915282518084019093526002835261763160f01b9083015291565b815160209283012081519183019190912060e0829052610100819052604080517f8b73c3c69bb8fe3d512ecc4cf759cc79239f7b179b0ffacaa9a75d522b39400f8152938401929092529082015246606082015230608082015260a090206101205250506001600160a01b03166101405250620001589050565b80516001600160a01b03811681146200011d575f80fd5b919050565b5f806040838503121562000134575f80fd5b6200013f8362000106565b91506200014f6020840162000106565b90509250929050565b60805160a05160c05160e051610100516101205161014051614e096200021a5f395f610e4701525f612b7301525f612c2d01525f612c0701525f612bb701525f612b9401525f81816104db015281816107360152818161080d01528181610aa901528181610b7a01528181610caa01528181610d8501528181611134015281816112540152818161132f015281816114940152818161229e0152818161239c01528181612452015281816124c0015281816125da01526126380152614e095ff3fe608060405234801561000f575f80fd5b50600436106101a4575f3560e01c806384b0196e116100e8578063af2c086811610093578063d6910df91161006e578063d6910df914610454578063dc32367114610467578063e22dfb821461047a578063fe99049a1461048d575f80fd5b8063af2c086814610401578063b6363cf214610414578063c8436c0014610441575f80fd5b806397125bee116100c357806397125bee146103d25780639bb0094c146103db578063ae489985146103ee575f80fd5b806384b0196e1461038457806391dd73461461039f578063924ca5e1146103bf575f80fd5b8063426a8493116101535780636a3ad7e21161012e5780636a3ad7e2146103425780636bc7bbc314610355578063701ff61214610368578063760f5f271461037b575f80fd5b8063426a849314610253578063558a7297146102a3578063598af9e714610312575f80fd5b8063095bcdb611610183578063095bcdb61461021a57806309c5eabe1461022d5780631845bfa614610240575f80fd5b8062fdd58e146101a857806301cbb715146101e257806301ffc9a7146101f7575b5f80fd5b6101cf6101b636600461395e565b5f60208181529281526040808220909352908152205481565b6040519081526020015b60405180910390f35b6101f56101f0366004613986565b6104a0565b005b61020a6102053660046139bf565b610601565b60405190151581526020016101d9565b61020a6102283660046139fe565b610699565b6101f561023b366004613a2e565b6106b1565b6101f561024e366004613a9a565b6107d2565b61020a6102613660046139fe565b335f90815260016020818152604080842073ffffffffffffffffffffffffffffffffffffffff8816855282528084208685529091529091208290559392505050565b61020a6102b1366004613af2565b335f90815260026020908152604080832073ffffffffffffffffffffffffffffffffffffffff86168452909152902080547fffffffffffffffffffffffffffffffffffffffffffffffffffffffffffffff0016821515179055600192915050565b6101cf610320366004613986565b600160209081525f938452604080852082529284528284209052825290205481565b6101f5610350366004613986565b61098c565b6101f561036336600461395e565b610a54565b6101f5610376366004613b27565b610afc565b6101cf600b5481565b61038c610be8565b6040516101d99796959493929190613bab565b6103b26103ad366004613a2e565b610c90565b6040516101d99190613c6b565b6101f56103cd366004613c7d565b610e2f565b6101cf600c5481565b6101f56103e936600461395e565b610f2a565b6101f56103fc366004613a9a565b610fcf565b6101f561040f366004613986565b6110a7565b61020a610422366004613cda565b600260209081525f928352604080842090915290825290205460ff1681565b6101f561044f36600461395e565b6111c9565b6101f5610462366004613986565b6112d9565b6101f5610475366004613986565b611392565b6101f5610488366004613986565b611459565b61020a61049b366004613d0b565b6115af565b3330146104d9576040517f2a49be6400000000000000000000000000000000000000000000000000000000815260040160405180910390fd5b7f000000000000000000000000000000000000000000000000000000000000000073ffffffffffffffffffffffffffffffffffffffff1663f5298aca846105338573ffffffffffffffffffffffffffffffffffffffff1690565b6040517fffffffff0000000000000000000000000000000000000000000000000000000060e085901b16815273ffffffffffffffffffffffffffffffffffffffff90921660048301526024820152604481018490526064015f604051808303815f87803b1580156105a2575f80fd5b505af11580156105b4573d5f803e3d5ffd5b50505073ffffffffffffffffffffffffffffffffffffffff8085165f9081526007602090815260408083209387168352929052206105fb91506105f68361168d565b6116eb565b50505050565b5f7f0f632fb3000000000000000000000000000000000000000000000000000000007fffffffff000000000000000000000000000000000000000000000000000000008316148061069357507f01ffc9a7000000000000000000000000000000000000000000000000000000007fffffffff000000000000000000000000000000000000000000000000000000008316145b92915050565b5f6106a633858585611730565b5060015b9392505050565b335f908152600a602052604090205460ff166106f9576040517f5cd26b6800000000000000000000000000000000000000000000000000000000815260040160405180910390fd5b6040517f48c8949100000000000000000000000000000000000000000000000000000000815273ffffffffffffffffffffffffffffffffffffffff7f000000000000000000000000000000000000000000000000000000000000000016906348c894919061076d9085908590600401613d4a565b5f604051808303815f875af1158015610788573d5f803e3d5ffd5b505050506040513d5f823e601f3d9081017fffffffffffffffffffffffffffffffffffffffffffffffffffffffffffffffe01682016040526107cd9190810190613f0e565b505050565b33301461080b576040517f2a49be6400000000000000000000000000000000000000000000000000000000815260040160405180910390fd5b7f000000000000000000000000000000000000000000000000000000000000000073ffffffffffffffffffffffffffffffffffffffff1663fe99049a85856108668673ffffffffffffffffffffffffffffffffffffffff1690565b6040517fffffffff0000000000000000000000000000000000000000000000000000000060e086901b16815273ffffffffffffffffffffffffffffffffffffffff93841660048201529290911660248301526044820152606481018490526084016020604051808303815f875af11580156108e3573d5f803e3d5ffd5b505050506040513d601f19601f820116820180604052508101906109079190613f7c565b5073ffffffffffffffffffffffffffffffffffffffff8085165f908152600760209081526040808320938616835292905220610946906105f68361168d565b5073ffffffffffffffffffffffffffffffffffffffff8084165f908152600760209081526040808320938616835292905220610985906105f683611746565b5050505050565b3330146109c5576040517f2a49be6400000000000000000000000000000000000000000000000000000000815260040160405180910390fd5b6109e773ffffffffffffffffffffffffffffffffffffffff83168430846117a7565b73ffffffffffffffffffffffffffffffffffffffff8084165f908152600660209081526040808320938616835292905220610a25906105f68361168d565b5073ffffffffffffffffffffffffffffffffffffffff82165f9081526009602052604090206105fb90826117ff565b333014610a8d576040517f2a49be6400000000000000000000000000000000000000000000000000000000815260040160405180910390fd5b610ace73ffffffffffffffffffffffffffffffffffffffff83167f000000000000000000000000000000000000000000000000000000000000000083611817565b73ffffffffffffffffffffffffffffffffffffffff82165f9081526009602052604090206107cd9082611860565b333014610b35576040517f2a49be6400000000000000000000000000000000000000000000000000000000815260040160405180910390fd5b6040517f6a256b2900000000000000000000000000000000000000000000000000000000815273ffffffffffffffffffffffffffffffffffffffff82811660048301527f00000000000000000000000000000000000000000000000000000000000000001690636a256b29906024016020604051808303815f875af1158015610bc0573d5f803e3d5ffd5b505050506040513d601f19601f82011682018060405250810190610be49190613f97565b5050565b7f0f000000000000000000000000000000000000000000000000000000000000006060805f808083610c7e604080518082018252600881527f416e677374726f6d0000000000000000000000000000000000000000000000006020808301919091528251808401909352600283527f76310000000000000000000000000000000000000000000000000000000000009083015291565b97989097965046955030945091925090565b60603373ffffffffffffffffffffffffffffffffffffffff7f00000000000000000000000000000000000000000000000000000000000000001614610d01576040517ff832861400000000000000000000000000000000000000000000000000000000815260040160405180910390fd5b5f80808080808080610d158a8c018c614799565b975097509750975097509750975097505f610d30898961186f565b9050610d3c81886119fe565b610d468187611a9c565b610d508185611cf0565b610d5a81846119fe565b5f5b8551811015610dd157610dc9868281518110610d7a57610d7a6148cc565b6020026020010151837f000000000000000000000000000000000000000000000000000000000000000073ffffffffffffffffffffffffffffffffffffffff166120259092919063ffffffff16565b600101610d5c565b505f5b8251811015610e0857610e0082848381518110610df357610df36148cc565b60200260200101516121bb565b600101610dd4565b50610e1161273a565b5050604080515f8152602081019091529a9950505050505050505050565b3373ffffffffffffffffffffffffffffffffffffffff7f00000000000000000000000000000000000000000000000000000000000000001614610e9e576040517fb56f932c00000000000000000000000000000000000000000000000000000000815260040160405180910390fd5b5f5b818110156107cd575f838383818110610ebb57610ebb6148cc565b9050602002016020810190610ed09190613b27565b73ffffffffffffffffffffffffffffffffffffffff165f908152600a6020526040902080547fffffffffffffffffffffffffffffffffffffffffffffffffffffffffffffff00811660ff9091161517905550600101610ea0565b333014610f63576040517f2a49be6400000000000000000000000000000000000000000000000000000000815260040160405180910390fd5b73ffffffffffffffffffffffffffffffffffffffff82165f908152600960205260409020610f919082611860565b5073ffffffffffffffffffffffffffffffffffffffff82165f9081526003602052604081208054839290610fc6908490614926565b90915550505050565b333014611008576040517f2a49be6400000000000000000000000000000000000000000000000000000000815260040160405180910390fd5b61102a73ffffffffffffffffffffffffffffffffffffffff83168585846117a7565b73ffffffffffffffffffffffffffffffffffffffff8085165f908152600660209081526040808320938616835292905220611068906105f68361168d565b5073ffffffffffffffffffffffffffffffffffffffff8084165f908152600660209081526040808320938616835292905220610985906105f683611746565b3330146110e0576040517f2a49be6400000000000000000000000000000000000000000000000000000000815260040160405180910390fd5b6040517f0b0d9c0900000000000000000000000000000000000000000000000000000000815273ffffffffffffffffffffffffffffffffffffffff83811660048301528481166024830152604482018390527f00000000000000000000000000000000000000000000000000000000000000001690630b0d9c09906064015f604051808303815f87803b158015611175575f80fd5b505af1158015611187573d5f803e3d5ffd5b50505073ffffffffffffffffffffffffffffffffffffffff8085165f9081526006602090815260408083209387168352929052206105fb91506105f683611746565b333014611202576040517f2a49be6400000000000000000000000000000000000000000000000000000000815260040160405180910390fd5b6040517f0b0d9c0900000000000000000000000000000000000000000000000000000000815273ffffffffffffffffffffffffffffffffffffffff8381166004830152306024830152604482018390527f00000000000000000000000000000000000000000000000000000000000000001690630b0d9c09906064015f604051808303815f87803b158015611295575f80fd5b505af11580156112a7573d5f803e3d5ffd5b50505073ffffffffffffffffffffffffffffffffffffffff83165f9081526009602052604090206107cd9150826117ff565b333014611312576040517f2a49be6400000000000000000000000000000000000000000000000000000000815260040160405180910390fd5b61135473ffffffffffffffffffffffffffffffffffffffff8316847f0000000000000000000000000000000000000000000000000000000000000000846117a7565b73ffffffffffffffffffffffffffffffffffffffff8084165f9081526006602090815260408083209386168352929052206105fb906105f68361168d565b3330146113cb576040517f2a49be6400000000000000000000000000000000000000000000000000000000815260040160405180910390fd5b6113ec73ffffffffffffffffffffffffffffffffffffffff83168483611817565b73ffffffffffffffffffffffffffffffffffffffff8084165f90815260066020908152604080832093861683529290522061142a906105f683611746565b5073ffffffffffffffffffffffffffffffffffffffff82165f9081526009602052604090206105fb9082611860565b333014611492576040517f2a49be6400000000000000000000000000000000000000000000000000000000815260040160405180910390fd5b7f000000000000000000000000000000000000000000000000000000000000000073ffffffffffffffffffffffffffffffffffffffff1663156e29f6846114ec8573ffffffffffffffffffffffffffffffffffffffff1690565b6040517fffffffff0000000000000000000000000000000000000000000000000000000060e085901b16815273ffffffffffffffffffffffffffffffffffffffff90921660048301526024820152604481018490526064015f604051808303815f87803b15801561155b575f80fd5b505af115801561156d573d5f803e3d5ffd5b50505073ffffffffffffffffffffffffffffffffffffffff8085165f9081526007602090815260408083209387168352929052206105fb91506105f683611746565b5f6115bc33868585612776565b73ffffffffffffffffffffffffffffffffffffffff85165f9081526020818152604080832086845290915290205482811015611624576040517ff4d678b800000000000000000000000000000000000000000000000000000000815260040160405180910390fd5b73ffffffffffffffffffffffffffffffffffffffff8087165f908152602081815260408083208884528252808320948790039094559187168152808252828120868252909152908120805484929061167d908490614926565b9091555060019695505050505050565b5f7f800000000000000000000000000000000000000000000000000000000000000082106116e7576040517f35278d1200000000000000000000000000000000000000000000000000000000815260040160405180910390fd5b5090565b5f825c816116f98483614939565b905061170585826128ca565b811515811515039250825f14611728576008805c90611726908583016128ca565b505b505092915050565b61173b8483836128d1565b6105fb83838361296f565b5f7f80000000000000000000000000000000000000000000000000000000000000008211156117a1576040517f35278d1200000000000000000000000000000000000000000000000000000000815260040160405180910390fd5b505f0390565b60405181606052826040528360601b602c526f23b872dd000000000000000000000000600c5260205f6064601c5f895af13d1560015f511417166117f257637939f4245f526004601cfd5b5f60605260405250505050565b5f61069361180e83855c614926565b915083826128ca565b81601452806034526fa9059cbb0000000000000000000000005f5260205f604460105f875af13d1560015f51141716611857576390b8ec185f526004601cfd5b5f603452505050565b5f61069361180e83855c614958565b604080518082019091525f81526060602082015243600b54036118be576040517fd8a6b89b00000000000000000000000000000000000000000000000000000000815260040160405180910390fd5b43600b819055505f835f815181106118d8576118d86148cc565b602002602001015190505f600190505b845181101561197d575f858281518110611904576119046148cc565b602002602001015190508273ffffffffffffffffffffffffffffffffffffffff168173ffffffffffffffffffffffffffffffffffffffff1611611973576040517f2612def000000000000000000000000000000000000000000000000000000000815260040160405180910390fd5b91506001016118e8565b505f61198985516129b6565b90505f5b84518110156119de575f8582815181106119a9576119a96148cc565b602002602001015190506119d5815f01518260200151836040015186612a38909392919063ffffffff16565b5060010161198d565b506040518060400160405280828152602001868152509250505092915050565b5f5b81518110156107cd575f3073ffffffffffffffffffffffffffffffffffffffff16838381518110611a3357611a336148cc565b6020026020010151604051611a48919061496b565b5f604051808303815f865af19150503d805f8114611a81576040519150601f19603f3d011682016040523d82523d5f602084013e611a86565b606091505b5050905080611a93575f80fd5b50600101611a00565b5f5b81518110156107cd575f828281518110611aba57611aba6148cc565b602002602001015190505f611adc826040015186612ab490919063ffffffff16565b90505f611af6836080015187612ab490919063ffffffff16565b90505f611b04848484612ae9565b5f818152600d60205260409020909150805c15611b4d576040517f8a2ef11600000000000000000000000000000000000000000000000000000000815260040160405180910390fd5b611b588160016128ca565b611b75856101200151611b6a84612b71565b876101400151612c87565b611bab576040517f8baa579f00000000000000000000000000000000000000000000000000000000815260040160405180910390fd5b60e085015173ffffffffffffffffffffffffffffffffffffffff1615611cae5760e08501516101208601516101008701516040517f7407905c000000000000000000000000000000000000000000000000000000008152638bf86fa39373ffffffffffffffffffffffffffffffffffffffff1692637407905c92611c3192600401614986565b6020604051808303815f875af1158015611c4d573d5f803e3d5ffd5b505050506040513d601f19601f82011682018060405250810190611c7191906149b4565b63ffffffff1614611cae576040517ff959fdae00000000000000000000000000000000000000000000000000000000815260040160405180910390fd5b611cc6856101200151866060015186885f0151612d91565b611cdf8561012001518660a00151858860200151612eb4565b505060019093019250611a9e915050565b5f5b81518110156107cd575f828281518110611d0e57611d0e6148cc565b602002602001015190505f611d398260c001518360800151875f0151612fc99092919063ffffffff16565b90508160600151811015611d79576040517f8e1edfa400000000000000000000000000000000000000000000000000000000815260040160405180910390fd5b5f611d91836080015187612ab490919063ffffffff16565b90505f611dab8460c0015188612ab490919063ffffffff16565b90505f611db9858484613003565b9050611dd8856101c00151611dcd83612b71565b876101e00151612c87565b611e0e576040517f8baa579f00000000000000000000000000000000000000000000000000000000815260040160405180910390fd5b600185516001811115611e2357611e236149d7565b03611e8057846101200151421115611e67576040517f203d82d800000000000000000000000000000000000000000000000000000000815260040160405180910390fd5b611e7b856101c00151866101000151613180565b611ed3565b5f818152600d60205260409020805c15611ec6576040517f8a2ef11600000000000000000000000000000000000000000000000000000000815260040160405180910390fd5b611ed18160016128ca565b505b61016085015173ffffffffffffffffffffffffffffffffffffffff1615611fd8576101608501516101c08601516101808701516040517f7407905c000000000000000000000000000000000000000000000000000000008152638bf86fa39373ffffffffffffffffffffffffffffffffffffffff1692637407905c92611f5b92600401614986565b6020604051808303815f875af1158015611f77573d5f803e3d5ffd5b505050506040513d601f19601f82011682018060405250810190611f9b91906149b4565b63ffffffff1614611fd8576040517ff959fdae00000000000000000000000000000000000000000000000000000000815260040160405180910390fd5b5f80611fe487876131ef565b91509150611ffd876101c001518860a001518785612d91565b612012876101c001518860e001518684612eb4565b505060019095019450611cf29350505050565b8273ffffffffffffffffffffffffffffffffffffffff1663f3cd914c6120f23061205b865f015186612ab490919063ffffffff16565b602087015161206b908790612ab4565b6040805160a080820183525f80835260208301819052828401819052606083018190526080830152825190810190925290808473ffffffffffffffffffffffffffffffffffffffff1681526020018373ffffffffffffffffffffffffffffffffffffffff90811682525f6020830152603c6040830152861660609091015290509392505050565b60405180606001604052808660400151151581526020016121168760600151611746565b8152602001866040015161213e5773fffd8963efd1fc6a506488495d951d5263988d25612145565b6401000276a45b73ffffffffffffffffffffffffffffffffffffffff168152506040518363ffffffff1660e01b815260040161217b929190614a04565b6020604051808303815f875af1158015612197573d5f803e3d5ffd5b505050506040513d601f19601f820116820180604052508101906105fb9190613f97565b80515f906121ca908490612ab4565b90505f6121e4836020015185612ab490919063ffffffff16565b90505f61227e6122773085856040805160a080820183525f80835260208301819052828401819052606083018190526080830152825190810190925290808473ffffffffffffffffffffffffffffffffffffffff1681526020018373ffffffffffffffffffffffffffffffffffffffff90811682525f6020830152603c6040830152861660609091015290509392505050565b60a0902090565b90505f6122cd6122c473ffffffffffffffffffffffffffffffffffffffff7f00000000000000000000000000000000000000000000000000000000000000001684613308565b60a01c60020b90565b90505f805f87608001516fffffffffffffffffffffffffffffffff1690505f886040015190508460020b8160020b1361249a575f805b81801561231457508a60a001515181105b1561236c575f8b60a00151828061232a90614a8d565b93508151811061233c5761233c6148cc565b6020026020010151905080876123529190614926565b965061235e81866133a7565b6123689087614926565b9550505b5f61238861237b600186614ac4565b603c5f8183071291050390565b9050600281900b60081d816123de816123d87f000000000000000000000000000000000000000000000000000000000000000073ffffffffffffffffffffffffffffffffffffffff168e866133c9565b9061347f565b90955090506123ed8282613547565b95505050508660020b8360020b1361249357811561248e575f888152600460209081526040808320600287900b845290915281208054879290612431908490614926565b909155505f905061247973ffffffffffffffffffffffffffffffffffffffff7f0000000000000000000000000000000000000000000000000000000000000000168a86613572565b600f0b915061248a90508582613648565b9450505b612303565b505061261e565b5f805b5f6124ac61237b856001614b05565b9050600281900b60081d816124fc816123d87f000000000000000000000000000000000000000000000000000000000000000073ffffffffffffffffffffffffffffffffffffffff168e866133c9565b909550905061250b8282613547565b95505050508660020b8360020b131561261b5781801561252f57508a60a001515181105b15612587575f8b60a00151828061254590614a8d565b935081518110612557576125576148cc565b60200260200101519050808761256d9190614926565b965061257981866133a7565b6125839087614926565b9550505b8115612616575f888152600460209081526040808320600287900b8452909152812080548792906125b9908490614926565b909155505f905061260173ffffffffffffffffffffffffffffffffffffffff7f0000000000000000000000000000000000000000000000000000000000000000168a86613572565b600f0b915061261290508582613663565b9450505b61249d565b50505b61265e73ffffffffffffffffffffffffffffffffffffffff7f0000000000000000000000000000000000000000000000000000000000000000168761367e565b6fffffffffffffffffffffffffffffffff1682146126dd576040517f08c379a000000000000000000000000000000000000000000000000000000000815260206004820152600f60248201527f57524f4e475f4c4951554944495459000000000000000000000000000000000060448201526064015b60405180910390fd5b5f86815260056020526040812080548592906126fa908490614926565b909155505073ffffffffffffffffffffffffffffffffffffffff88165f90815260096020526040902061272d9085611860565b5050505050505050505050565b60085c15612774576040517f2aaf97c200000000000000000000000000000000000000000000000000000000815260040160405180910390fd5b565b73ffffffffffffffffffffffffffffffffffffffff8084165f9081526002602090815260408083209388168352929052205460ff166105fb5773ffffffffffffffffffffffffffffffffffffffff8084165f9081526001602090815260408083209388168352928152828220858352905220547effffffffffffffffffffffffffffffffffffffffffffffffffffffffffffff81111561281657506105fb565b818110801561285157508473ffffffffffffffffffffffffffffffffffffffff168473ffffffffffffffffffffffffffffffffffffffff1614155b15612888576040517fdeda903000000000000000000000000000000000000000000000000000000000815260040160405180910390fd5b73ffffffffffffffffffffffffffffffffffffffff939093165f9081526001602090815260408083203384528252808320948352939052919091209103905550565b80825d5050565b73ffffffffffffffffffffffffffffffffffffffff83165f9081526020818152604080832085845290915290205481811015612939576040517ff4d678b800000000000000000000000000000000000000000000000000000000815260040160405180910390fd5b73ffffffffffffffffffffffffffffffffffffffff9093165f908152602081815260408083209483529390529190912091039055565b73ffffffffffffffffffffffffffffffffffffffff83165f90815260208181526040808320858452909152812080548392906129ac908490614926565b9091555050505050565b5f6107d08211156129f3576040517f0949696b00000000000000000000000000000000000000000000000000000000815260040160405180910390fd5b60405160027fffffffffffffffffffffffffffffffffffffffffffffffffffffffffffffffff8401840204906021820280368337810160405260181b90921792915050565b612a438484846136fd565b5f612a7d61ffff85165b61ffff1660027fffffffffffffffffffffffffffffffffffffffffffffffffffffffffffffffff82019091020490565b90508460181c8382016021028101905080515f1a15612aa35763faa3eb245f526004601cfd5b600181536001019190915250505050565b5f8260200151612ac58361ffff1690565b61ffff1681518110612ad957612ad96148cc565b6020026020010151905092915050565b5f7f9cbbebb9994d174bd751b1dc4daa5a49b0499961981537e17dc729996bf53596845f01518560200151858760600151868960a001518a60c00151612b388c60e001518d610100015161376d565b43604051602001612b529a99989796959493929190614b7f565b6040516020818303038152906040528051906020012090509392505050565b7f00000000000000000000000000000000000000000000000000000000000000007f000000000000000000000000000000000000000000000000000000000000000030147f0000000000000000000000000000000000000000000000000000000000000000461416612c645750604080517f8b73c3c69bb8fe3d512ecc4cf759cc79239f7b179b0ffacaa9a75d522b39400f81527f000000000000000000000000000000000000000000000000000000000000000060208201527f00000000000000000000000000000000000000000000000000000000000000009181019190915246606082015230608082015260a090205b6719010000000000005f5280601a5281603a52604260182090505f603a52919050565b73ffffffffffffffffffffffffffffffffffffffff909216915f83156106aa57604051835f5260208301516040526040835103612d00576040830151601b8160ff1c016020528060011b60011c606052506020600160805f60015afa805186183d1517612cfe57505f6060526040525060016106aa565b505b6041835103612d435760608301515f1a60205260408301516060526020600160805f60015afa805186183d1517612d4157505f6060526040525060016106aa565b505b5f60605280604052631626ba7e60e01b808252846004830152602482016040815284516020018060448501828860045afa505060208160443d01858a5afa9051909114169150509392505050565b6002836002811115612da557612da56149d7565b03612dff57612dcb8473ffffffffffffffffffffffffffffffffffffffff8416836128d1565b73ffffffffffffffffffffffffffffffffffffffff82165f908152600960205260409020612df990826117ff565b506105fb565b6001836002811115612e1357612e136149d7565b03612e565773ffffffffffffffffffffffffffffffffffffffff8085165f908152600760209081526040808320938616835292905220612df9906105f683611746565b5f836002811115612e6957612e696149d7565b03612eac5773ffffffffffffffffffffffffffffffffffffffff8085165f908152600660209081526040808320938616835292905220612df9906105f683611746565b6105fb614bf9565b6002836002811115612ec857612ec86149d7565b03612f1c57612eee8473ffffffffffffffffffffffffffffffffffffffff84168361296f565b73ffffffffffffffffffffffffffffffffffffffff82165f908152600960205260409020612df99082611860565b6001836002811115612f3057612f306149d7565b03612f735773ffffffffffffffffffffffffffffffffffffffff8085165f908152600760209081526040808320938616835292905220612df9906105f68361168d565b5f836002811115612f8657612f866149d7565b03612eac5773ffffffffffffffffffffffffffffffffffffffff8085165f908152600660209081526040808320938616835292905220612df9906105f68361168d565b5f61ffff82811690841611612ff057612feb612fe68584866137e1565b61382d565b612ffb565b612ffb8484846137e1565b949350505050565b5f600184516001811115613019576130196149d7565b036130d1577ff62af20d70f9b07c8fe991154a18475a61a5cce64f22d93b78f98fc72acb3d8d61305d85602001516002811115613058576130586149d7565b61384f565b85604001518660600151868860a00151878a60e001518b610140015161308d8d61016001518e610180015161376d565b8d61010001518e61012001516040516020016130b49c9b9a99989796959493929190614c26565b6040516020818303038152906040528051906020012090506106aa565b5f845160018111156130e5576130e56149d7565b0361316f577fad5d390347165c93fb6232ef1a95449fd81131071325f0c860574c72a90bcaa961312485602001516002811115613058576130586149d7565b85604001518660600151868860a00151878a60e001518b61014001516131548d61016001518e610180015161376d565b436040516020016130b49b9a99989796959493929190614cbb565b613177614bf9565b505f9392505050565b600c81815263daa050e96004525f838152601f9091209050600160ff83161b5f816131a9845490565b1890508181165f036131e7576040517f8cb8887200000000000000000000000000000000000000000000000000000000815260040160405180910390fd5b808355610985565b600c545f908190818560200151600281111561320d5761320d6149d7565b03613240576040850151925061322383856133a7565b915061322f828261391e565b6132399083614958565b9150613300565b600185602001516002811115613258576132586149d7565b0361328b576040850151915061326e828561391e565b925061327a838261391e565b6132849084614926565b9250613300565b6002856020015160028111156132a3576132a36149d7565b036132f857846101a00151925084604001518311156132ee576040517f4418233100000000000000000000000000000000000000000000000000000000815260040160405180910390fd5b61322383856133a7565b613300614bf9565b509250929050565b5f81815260066020526040812081906040517f1e2eaeaf0000000000000000000000000000000000000000000000000000000081526004810182905290915073ffffffffffffffffffffffffffffffffffffffff851690631e2eaeaf90602401602060405180830381865afa158015613383573d5f803e3d5ffd5b505050506040513d601f19601f82011682018060405250810190612ffb9190613f97565b5f816133bf6b033b2e3c9fd0803ce800000085614d3d565b6106aa9190614d54565b5f828152600660209081526040808320848452600501909152812081906040517f1e2eaeaf0000000000000000000000000000000000000000000000000000000081526004810182905290915073ffffffffffffffffffffffffffffffffffffffff861690631e2eaeaf90602401602060405180830381865afa158015613452573d5f803e3d5ffd5b505050506040513d601f19601f820116820180604052508101906134769190613f97565b95945050505050565b5f805f8360ff0390505f6135208260ff1687901b7f0706060506020504060203020504030106050205030304010505030400000000601f6f8421084210842108cc6318c6db6d54be831560081b6fffffffffffffffffffffffffffffffff851160071b1784811c67ffffffffffffffff1060061b1784811c63ffffffff1060051b1784811c61ffff1060041b1784811c60ff1060031b1793841c1c161a1790565b9050806101001415935083613535575f61353c565b8160ff1681035b925050509250929050565b5f603c60ff831661355e600186900b610100614d8c565b6135689190614b05565b6106aa9190614d8c565b5f8281526006602090815260408083208484526004019091528120819081906040517f1e2eaeaf000000000000000000000000000000000000000000000000000000008152600481018290529091505f9073ffffffffffffffffffffffffffffffffffffffff881690631e2eaeaf90602401602060405180830381865afa1580156135ff573d5f803e3d5ffd5b505050506040513d601f19601f820116820180604052508101906136239190613f97565b6fffffffffffffffffffffffffffffffff81169860809190911d975095505050505050565b8082038281115f8312146106935763c9654ed45f526004601cfd5b8181018281115f8313146106935763c9654ed45f526004601cfd5b5f81815260066020526040812081906040517f1e2eaeaf0000000000000000000000000000000000000000000000000000000081526003820160048201529091505f9073ffffffffffffffffffffffffffffffffffffffff861690631e2eaeaf90602401602060405180830381865afa158015613452573d5f803e3d5ffd5b61ffff81811683821690811115918516111517156107cd576040517ffa9f860600000000000000000000000000000000000000000000000000000000815261ffff8281168482168181111560048501529186168210156024840152604483019190915260648201526084016126d4565b5f73ffffffffffffffffffffffffffffffffffffffff83166137b057507fc5d2460186f7233c927e7db2dcc703c0e500b653ca82273b7bfad8045d85a470610693565b82826040516020016137c3929190614db2565b60405160208183030381529060405280519060200120905092915050565b5f6137ed8484846136fd565b5f6137fb61ffff8516612a4d565b90508460181c8382016021028101905080515f1a613820576327515afa5f526004601cfd5b6001015195945050505050565b5f61069382760a70c3c40a64e6c51999090b65f67d9240000000000000614d54565b5f80826002811115613863576138636149d7565b0361388f57507f9d8debe476c29a31917f79e56e3efa8673aba3b7df7e512822430494d1bbf71b919050565b60018260028111156138a3576138a36149d7565b036138cf57507f1b276e4b7edbea20a3ffd1a638ea69930e84d1634d12ba5e47b88b79377f117f919050565b60028260028111156138e3576138e36149d7565b0361390f57507f1b276e4b7edbea20a3ffd1a638ea69930e84d1634d12ba5e47b88b79377f117f919050565b613917614bf9565b505f919050565b5f6b033b2e3c9fd0803ce80000006133bf8385614d3d565b803573ffffffffffffffffffffffffffffffffffffffff81168114613959575f80fd5b919050565b5f806040838503121561396f575f80fd5b61397883613936565b946020939093013593505050565b5f805f60608486031215613998575f80fd5b6139a184613936565b92506139af60208501613936565b9150604084013590509250925092565b5f602082840312156139cf575f80fd5b81357fffffffff00000000000000000000000000000000000000000000000000000000811681146106aa575f80fd5b5f805f60608486031215613a10575f80fd5b613a1984613936565b95602085013595506040909401359392505050565b5f8060208385031215613a3f575f80fd5b823567ffffffffffffffff80821115613a56575f80fd5b818501915085601f830112613a69575f80fd5b813581811115613a77575f80fd5b866020828501011115613a88575f80fd5b60209290920196919550909350505050565b5f805f8060808587031215613aad575f80fd5b613ab685613936565b9350613ac460208601613936565b9250613ad260408601613936565b9396929550929360600135925050565b8015158114613aef575f80fd5b50565b5f8060408385031215613b03575f80fd5b613b0c83613936565b91506020830135613b1c81613ae2565b809150509250929050565b5f60208284031215613b37575f80fd5b6106aa82613936565b5f5b83811015613b5a578181015183820152602001613b42565b50505f910152565b5f8151808452613b79816020860160208601613b40565b601f017fffffffffffffffffffffffffffffffffffffffffffffffffffffffffffffffe0169290920160200192915050565b7fff00000000000000000000000000000000000000000000000000000000000000881681525f602060e06020840152613be760e084018a613b62565b8381036040850152613bf9818a613b62565b6060850189905273ffffffffffffffffffffffffffffffffffffffff8816608086015260a0850187905284810360c0860152855180825260208088019350909101905f5b81811015613c5957835183529284019291840191600101613c3d565b50909c9b505050505050505050505050565b602081525f6106aa6020830184613b62565b5f8060208385031215613c8e575f80fd5b823567ffffffffffffffff80821115613ca5575f80fd5b818501915085601f830112613cb8575f80fd5b813581811115613cc6575f80fd5b8660208260051b8501011115613a88575f80fd5b5f8060408385031215613ceb575f80fd5b613cf483613936565b9150613d0260208401613936565b90509250929050565b5f805f8060808587031215613d1e575f80fd5b613d2785613936565b9350613d3560208601613936565b93969395505050506040820135916060013590565b60208152816020820152818360408301375f818301604090810191909152601f9092017fffffffffffffffffffffffffffffffffffffffffffffffffffffffffffffffe0160101919050565b7f4e487b71000000000000000000000000000000000000000000000000000000005f52604160045260245ffd5b6040516060810167ffffffffffffffff81118282101715613de657613de6613d96565b60405290565b604051610160810167ffffffffffffffff81118282101715613de657613de6613d96565b6040516080810167ffffffffffffffff81118282101715613de657613de6613d96565b604051610200810167ffffffffffffffff81118282101715613de657613de6613d96565b60405160c0810167ffffffffffffffff81118282101715613de657613de6613d96565b604051601f82017fffffffffffffffffffffffffffffffffffffffffffffffffffffffffffffffe016810167ffffffffffffffff81118282101715613ec157613ec1613d96565b604052919050565b5f67ffffffffffffffff821115613ee257613ee2613d96565b50601f017fffffffffffffffffffffffffffffffffffffffffffffffffffffffffffffffe01660200190565b5f60208284031215613f1e575f80fd5b815167ffffffffffffffff811115613f34575f80fd5b8201601f81018413613f44575f80fd5b8051613f57613f5282613ec9565b613e7a565b818152856020838501011115613f6b575f80fd5b613476826020830160208601613b40565b5f60208284031215613f8c575f80fd5b81516106aa81613ae2565b5f60208284031215613fa7575f80fd5b5051919050565b5f67ffffffffffffffff821115613fc757613fc7613d96565b5060051b60200190565b5f82601f830112613fe0575f80fd5b81356020613ff0613f5283613fae565b8083825260208201915060208460051b870101935086841115614011575f80fd5b602086015b848110156140345761402781613936565b8352918301918301614016565b509695505050505050565b803561ffff81168114613959575f80fd5b5f82601f83011261405f575f80fd5b8135602061406f613f5283613fae565b8281526060928302850182019282820191908785111561408d575f80fd5b8387015b858110156140e05781818a0312156140a7575f80fd5b6140af613dc3565b6140b88261403f565b81526140c586830161403f565b81870152604082810135908201528452928401928101614091565b5090979650505050505050565b5f82601f8301126140fc575f80fd5b813561410a613f5282613ec9565b81815284602083860101111561411e575f80fd5b816020850160208301375f918101602001919091529392505050565b5f82601f830112614149575f80fd5b81356020614159613f5283613fae565b82815260059290921b84018101918181019086841115614177575f80fd5b8286015b8481101561403457803567ffffffffffffffff811115614199575f80fd5b6141a78986838b01016140ed565b84525091830191830161417b565b803560038110613959575f80fd5b5f82601f8301126141d2575f80fd5b813560206141e2613f5283613fae565b82815260059290921b84018101918181019086841115614200575f80fd5b8286015b8481101561403457803567ffffffffffffffff80821115614223575f80fd5b8189019150610160807fffffffffffffffffffffffffffffffffffffffffffffffffffffffffffffffe0848d0301121561425b575f80fd5b614263613dec565b87840135815260408085013589830152606061428081870161403f565b82840152608091506142938287016141b5565b9083015260a06142a486820161403f565b8284015260c091506142b78287016141b5565b9083015260e06142c8868201613936565b8284015261010091506142dc828701613936565b9083015261012085810135858111156142f3575f80fd5b6143018f8c838a01016140ed565b83850152506101409150614316828701613936565b9083015291840135918383111561432b575f80fd5b6143398d8a858801016140ed565b908201528652505050918301918301614204565b5f82601f83011261435c575f80fd5b8135602061436c613f5283613fae565b82815260079290921b8401810191818101908684111561438a575f80fd5b8286015b8481101561403457608081890312156143a5575f80fd5b6143ad613e10565b6143b68261403f565b81526143c385830161403f565b858201526040808301356143d681613ae2565b908201526060828101359082015283529183019160800161438e565b803560028110613959575f80fd5b803567ffffffffffffffff81168114613959575f80fd5b5f82601f830112614426575f80fd5b81356020614436613f5283613fae565b82815260059290921b84018101918181019086841115614454575f80fd5b8286015b8481101561403457803567ffffffffffffffff80821115614477575f80fd5b8189019150610200807fffffffffffffffffffffffffffffffffffffffffffffffffffffffffffffffe0848d030112156144af575f80fd5b6144b7613e33565b6144c28885016143f2565b815260406144d18186016141b5565b89830152606080860135828401526080915081860135818401525060a06144f981870161403f565b8284015260c0915061450c8287016141b5565b9083015260e061451d86820161403f565b8284015261010091506145318287016141b5565b90830152610120614543868201614400565b828401526101409150818601358184015250610160614563818701613936565b828401526101809150614577828701613936565b908301526101a0858101358581111561458e575f80fd5b61459c8f8c838a01016140ed565b83850152506101c091508186013581840152506101e06145bd818701613936565b838301529285013592848411156145d2575f80fd5b6145e08e8b868901016140ed565b90830152508652505050918301918301614458565b80356fffffffffffffffffffffffffffffffff81168114613959575f80fd5b5f82601f830112614623575f80fd5b81356020614633613f5283613fae565b8083825260208201915060208460051b870101935086841115614654575f80fd5b602086015b848110156140345780358352918301918301614659565b5f82601f83011261467f575f80fd5b8135602061468f613f5283613fae565b82815260059290921b840181019181810190868411156146ad575f80fd5b8286015b8481101561403457803567ffffffffffffffff808211156146d0575f80fd5b818901915060c0807fffffffffffffffffffffffffffffffffffffffffffffffffffffffffffffffe0848d03011215614707575f80fd5b61470f613e57565b61471a88850161403f565b8152604061472981860161403f565b898301526060808601358060020b8114614741575f80fd5b8083850152506080915081860135818401525060a06147618187016145f5565b83830152928501359284841115614776575f80fd5b6147848e8b86890101614614565b908301525086525050509183019183016146b1565b5f805f805f805f80610100898b0312156147b1575f80fd5b883567ffffffffffffffff808211156147c8575f80fd5b6147d48c838d01613fd1565b995060208b01359150808211156147e9575f80fd5b6147f58c838d01614050565b985060408b013591508082111561480a575f80fd5b6148168c838d0161413a565b975060608b013591508082111561482b575f80fd5b6148378c838d016141c3565b965060808b013591508082111561484c575f80fd5b6148588c838d0161434d565b955060a08b013591508082111561486d575f80fd5b6148798c838d01614417565b945060c08b013591508082111561488e575f80fd5b61489a8c838d0161413a565b935060e08b01359150808211156148af575f80fd5b506148bc8b828c01614670565b9150509295985092959890939650565b7f4e487b71000000000000000000000000000000000000000000000000000000005f52603260045260245ffd5b7f4e487b71000000000000000000000000000000000000000000000000000000005f52601160045260245ffd5b80820180821115610693576106936148f9565b8082018281125f831280158216821582161715611728576117286148f9565b81810381811115610693576106936148f9565b5f825161497c818460208701613b40565b9190910192915050565b73ffffffffffffffffffffffffffffffffffffffff83168152604060208201525f612ffb6040830184613b62565b5f602082840312156149c4575f80fd5b815163ffffffff811681146106aa575f80fd5b7f4e487b71000000000000000000000000000000000000000000000000000000005f52602160045260245ffd5b5f61012073ffffffffffffffffffffffffffffffffffffffff80865116845280602087015116602085015262ffffff6040870151166040850152606086015160020b60608501528060808701511660808501528451151560a0850152602085015160c08501528060408601511660e085015250806101008401526134768184015f815260200190565b5f7fffffffffffffffffffffffffffffffffffffffffffffffffffffffffffffffff8203614abd57614abd6148f9565b5060010190565b600282810b9082900b037fffffffffffffffffffffffffffffffffffffffffffffffffffffffffff8000008112627fffff82131715610693576106936148f9565b600281810b9083900b01627fffff81137fffffffffffffffffffffffffffffffffffffffffffffffffffffffffff80000082121715610693576106936148f9565b60038110614b7b577f4e487b71000000000000000000000000000000000000000000000000000000005f52602160045260245ffd5b9052565b5f610140820190508b82528a602083015289604083015273ffffffffffffffffffffffffffffffffffffffff808a166060840152614bc0608084018a614b46565b80881660a0840152614bd560c0840188614b46565b9490941660e082015261010081019290925261012090910152979650505050505050565b7f4e487b71000000000000000000000000000000000000000000000000000000005f52600160045260245ffd5b5f610180820190508d82528c60208301528b60408301528a606083015273ffffffffffffffffffffffffffffffffffffffff808b166080840152614c6d60a084018b614b46565b80891660c0840152614c8260e0840189614b46565b9590951661010082015261012081019390935267ffffffffffffffff919091166101408301526101609091015298975050505050505050565b5f610160820190508c82528b60208301528a604083015289606083015273ffffffffffffffffffffffffffffffffffffffff808a166080840152614d0260a084018a614b46565b80881660c0840152614d1760e0840188614b46565b949094166101008201526101208101929092526101409091015298975050505050505050565b8082028115828204841417610693576106936148f9565b5f82614d87577f4e487b71000000000000000000000000000000000000000000000000000000005f52601260045260245ffd5b500490565b5f8260020b8260020b028060020b9150808214614dab57614dab6148f9565b5092915050565b7fffffffffffffffffffffffffffffffffffffffff0000000000000000000000008360601b1681525f8251614dee816014850160208701613b40565b91909101601401939250505056fea164736f6c6343000818000a","linkReferences":{}},"methodIdentifiers":{"allUniV4FreeToUniV4Delta(address)":"701ff612","allowance(address,address,uint256)":"598af9e7","approve(address,uint256,uint256)":"426a8493","balanceOf(address,uint256)":"00fdd58e","burnV4(address,address,uint256)":"01cbb715","eip712Domain()":"84b0196e","execute(bytes)":"09c5eabe","freeToUniV4Free(address,uint256)":"6bc7bbc3","halfSpreadRay()":"97125bee","isOperator(address,address)":"b6363cf2","lastBlockUpdated()":"760f5f27","mintV4(address,address,uint256)":"e22dfb82","pullLiquid(address,address,uint256)":"6a3ad7e2","pullToV4(address,address,uint256)":"d6910df9","pushFromV4(address,address,uint256)":"af2c0868","pushLiquid(address,address,uint256)":"dc323671","saveNodeFee(address,uint256)":"9bb0094c","setOperator(address,bool)":"558a7297","supportsInterface(bytes4)":"01ffc9a7","transfer(address,uint256,uint256)":"095bcdb6","transferFrom(address,address,uint256,uint256)":"fe99049a","uniV4DeltaToFree(address,uint256)":"c8436c00","unlockCallback(bytes)":"91dd7346","updateNodes(address[])":"924ca5e1","userToUserLiquidTransfer(address,address,address,uint256)":"ae489985","userToUserV4ClaimTransfer(address,address,address,uint256)":"1845bfa6"},"id":81}