{"abi":[{"type":"constructor","inputs":[{"name":"controllerGasLimit","type":"uint256","internalType":"uint256"}],"stateMutability":"nonpayable"},{"type":"function","name":"MAX_TICK_SPACING","inputs":[],"outputs":[{"name":"","type":"int24","internalType":"int24"}],"stateMutability":"view"},{"type":"function","name":"MIN_TICK_SPACING","inputs":[],"outputs":[{"name":"","type":"int24","internalType":"int24"}],"stateMutability":"view"},{"type":"function","name":"allowance","inputs":[{"name":"","type":"address","internalType":"address"},{"name":"","type":"address","internalType":"address"},{"name":"","type":"uint256","internalType":"uint256"}],"outputs":[{"name":"","type":"uint256","internalType":"uint256"}],"stateMutability":"view"},{"type":"function","name":"approve","inputs":[{"name":"spender","type":"address","internalType":"address"},{"name":"id","type":"uint256","internalType":"uint256"},{"name":"amount","type":"uint256","internalType":"uint256"}],"outputs":[{"name":"","type":"bool","internalType":"bool"}],"stateMutability":"nonpayable"},{"type":"function","name":"balanceOf","inputs":[{"name":"","type":"address","internalType":"address"},{"name":"","type":"uint256","internalType":"uint256"}],"outputs":[{"name":"","type":"uint256","internalType":"uint256"}],"stateMutability":"view"},{"type":"function","name":"burn","inputs":[{"name":"from","type":"address","internalType":"address"},{"name":"id","type":"uint256","internalType":"uint256"},{"name":"amount","type":"uint256","internalType":"uint256"}],"outputs":[],"stateMutability":"nonpayable"},{"type":"function","name":"collectProtocolFees","inputs":[{"name":"recipient","type":"address","internalType":"address"},{"name":"currency","type":"address","internalType":"Currency"},{"name":"amount","type":"uint256","internalType":"uint256"}],"outputs":[{"name":"amountCollected","type":"uint256","internalType":"uint256"}],"stateMutability":"nonpayable"},{"type":"function","name":"donate","inputs":[{"name":"key","type":"tuple","internalType":"struct PoolKey","components":[{"name":"currency0","type":"address","internalType":"Currency"},{"name":"currency1","type":"address","internalType":"Currency"},{"name":"fee","type":"uint24","internalType":"uint24"},{"name":"tickSpacing","type":"int24","internalType":"int24"},{"name":"hooks","type":"address","internalType":"contract IHooks"}]},{"name":"amount0","type":"uint256","internalType":"uint256"},{"name":"amount1","type":"uint256","internalType":"uint256"},{"name":"hookData","type":"bytes","internalType":"bytes"}],"outputs":[{"name":"delta","type":"int256","internalType":"BalanceDelta"}],"stateMutability":"nonpayable"},{"type":"function","name":"extsload","inputs":[{"name":"slot","type":"bytes32","internalType":"bytes32"}],"outputs":[{"name":"","type":"bytes32","internalType":"bytes32"}],"stateMutability":"view"},{"type":"function","name":"extsload","inputs":[{"name":"startSlot","type":"bytes32","internalType":"bytes32"},{"name":"nSlots","type":"uint256","internalType":"uint256"}],"outputs":[{"name":"","type":"bytes","internalType":"bytes"}],"stateMutability":"view"},{"type":"function","name":"extsload","inputs":[{"name":"slots","type":"bytes32[]","internalType":"bytes32[]"}],"outputs":[{"name":"","type":"bytes32[]","internalType":"bytes32[]"}],"stateMutability":"view"},{"type":"function","name":"exttload","inputs":[{"name":"slots","type":"bytes32[]","internalType":"bytes32[]"}],"outputs":[{"name":"","type":"bytes32[]","internalType":"bytes32[]"}],"stateMutability":"view"},{"type":"function","name":"exttload","inputs":[{"name":"slot","type":"bytes32","internalType":"bytes32"}],"outputs":[{"name":"","type":"bytes32","internalType":"bytes32"}],"stateMutability":"view"},{"type":"function","name":"initialize","inputs":[{"name":"key","type":"tuple","internalType":"struct PoolKey","components":[{"name":"currency0","type":"address","internalType":"Currency"},{"name":"currency1","type":"address","internalType":"Currency"},{"name":"fee","type":"uint24","internalType":"uint24"},{"name":"tickSpacing","type":"int24","internalType":"int24"},{"name":"hooks","type":"address","internalType":"contract IHooks"}]},{"name":"sqrtPriceX96","type":"uint160","internalType":"uint160"},{"name":"hookData","type":"bytes","internalType":"bytes"}],"outputs":[{"name":"tick","type":"int24","internalType":"int24"}],"stateMutability":"nonpayable"},{"type":"function","name":"isOperator","inputs":[{"name":"","type":"address","internalType":"address"},{"name":"","type":"address","internalType":"address"}],"outputs":[{"name":"","type":"bool","internalType":"bool"}],"stateMutability":"view"},{"type":"function","name":"mint","inputs":[{"name":"to","type":"address","internalType":"address"},{"name":"id","type":"uint256","internalType":"uint256"},{"name":"amount","type":"uint256","internalType":"uint256"}],"outputs":[],"stateMutability":"nonpayable"},{"type":"function","name":"modifyLiquidity","inputs":[{"name":"key","type":"tuple","internalType":"struct PoolKey","components":[{"name":"currency0","type":"address","internalType":"Currency"},{"name":"currency1","type":"address","internalType":"Currency"},{"name":"fee","type":"uint24","internalType":"uint24"},{"name":"tickSpacing","type":"int24","internalType":"int24"},{"name":"hooks","type":"address","internalType":"contract IHooks"}]},{"name":"params","type":"tuple","internalType":"struct IPoolManager.ModifyLiquidityParams","components":[{"name":"tickLower","type":"int24","internalType":"int24"},{"name":"tickUpper","type":"int24","internalType":"int24"},{"name":"liquidityDelta","type":"int256","internalType":"int256"},{"name":"salt","type":"bytes32","internalType":"bytes32"}]},{"name":"hookData","type":"bytes","internalType":"bytes"}],"outputs":[{"name":"callerDelta","type":"int256","internalType":"BalanceDelta"},{"name":"feesAccrued","type":"int256","internalType":"BalanceDelta"}],"stateMutability":"nonpayable"},{"type":"function","name":"owner","inputs":[],"outputs":[{"name":"","type":"address","internalType":"address"}],"stateMutability":"view"},{"type":"function","name":"protocolFeeController","inputs":[],"outputs":[{"name":"","type":"address","internalType":"contract IProtocolFeeController"}],"stateMutability":"view"},{"type":"function","name":"protocolFeesAccrued","inputs":[{"name":"currency","type":"address","internalType":"Currency"}],"outputs":[{"name":"","type":"uint256","internalType":"uint256"}],"stateMutability":"view"},{"type":"function","name":"setOperator","inputs":[{"name":"operator","type":"address","internalType":"address"},{"name":"approved","type":"bool","internalType":"bool"}],"outputs":[{"name":"","type":"bool","internalType":"bool"}],"stateMutability":"nonpayable"},{"type":"function","name":"setProtocolFee","inputs":[{"name":"key","type":"tuple","internalType":"struct PoolKey","components":[{"name":"currency0","type":"address","internalType":"Currency"},{"name":"currency1","type":"address","internalType":"Currency"},{"name":"fee","type":"uint24","internalType":"uint24"},{"name":"tickSpacing","type":"int24","internalType":"int24"},{"name":"hooks","type":"address","internalType":"contract IHooks"}]},{"name":"newProtocolFee","type":"uint24","internalType":"uint24"}],"outputs":[],"stateMutability":"nonpayable"},{"type":"function","name":"setProtocolFeeController","inputs":[{"name":"controller","type":"address","internalType":"contract IProtocolFeeController"}],"outputs":[],"stateMutability":"nonpayable"},{"type":"function","name":"settle","inputs":[{"name":"currency","type":"address","internalType":"Currency"}],"outputs":[{"name":"paid","type":"uint256","internalType":"uint256"}],"stateMutability":"payable"},{"type":"function","name":"supportsInterface","inputs":[{"name":"interfaceId","type":"bytes4","internalType":"bytes4"}],"outputs":[{"name":"","type":"bool","internalType":"bool"}],"stateMutability":"view"},{"type":"function","name":"swap","inputs":[{"name":"key","type":"tuple","internalType":"struct PoolKey","components":[{"name":"currency0","type":"address","internalType":"Currency"},{"name":"currency1","type":"address","internalType":"Currency"},{"name":"fee","type":"uint24","internalType":"uint24"},{"name":"tickSpacing","type":"int24","internalType":"int24"},{"name":"hooks","type":"address","internalType":"contract IHooks"}]},{"name":"params","type":"tuple","internalType":"struct IPoolManager.SwapParams","components":[{"name":"zeroForOne","type":"bool","internalType":"bool"},{"name":"amountSpecified","type":"int256","internalType":"int256"},{"name":"sqrtPriceLimitX96","type":"uint160","internalType":"uint160"}]},{"name":"hookData","type":"bytes","internalType":"bytes"}],"outputs":[{"name":"swapDelta","type":"int256","internalType":"BalanceDelta"}],"stateMutability":"nonpayable"},{"type":"function","name":"sync","inputs":[{"name":"currency","type":"address","internalType":"Currency"}],"outputs":[{"name":"balance","type":"uint256","internalType":"uint256"}],"stateMutability":"nonpayable"},{"type":"function","name":"take","inputs":[{"name":"currency","type":"address","internalType":"Currency"},{"name":"to","type":"address","internalType":"address"},{"name":"amount","type":"uint256","internalType":"uint256"}],"outputs":[],"stateMutability":"nonpayable"},{"type":"function","name":"transfer","inputs":[{"name":"receiver","type":"address","internalType":"address"},{"name":"id","type":"uint256","internalType":"uint256"},{"name":"amount","type":"uint256","internalType":"uint256"}],"outputs":[{"name":"","type":"bool","internalType":"bool"}],"stateMutability":"nonpayable"},{"type":"function","name":"transferFrom","inputs":[{"name":"sender","type":"address","internalType":"address"},{"name":"receiver","type":"address","internalType":"address"},{"name":"id","type":"uint256","internalType":"uint256"},{"name":"amount","type":"uint256","internalType":"uint256"}],"outputs":[{"name":"","type":"bool","internalType":"bool"}],"stateMutability":"nonpayable"},{"type":"function","name":"transferOwnership","inputs":[{"name":"newOwner","type":"address","internalType":"address"}],"outputs":[],"stateMutability":"nonpayable"},{"type":"function","name":"unlock","inputs":[{"name":"data","type":"bytes","internalType":"bytes"}],"outputs":[{"name":"result","type":"bytes","internalType":"bytes"}],"stateMutability":"nonpayable"},{"type":"function","name":"updateDynamicLPFee","inputs":[{"name":"key","type":"tuple","internalType":"struct PoolKey","components":[{"name":"currency0","type":"address","internalType":"Currency"},{"name":"currency1","type":"address","internalType":"Currency"},{"name":"fee","type":"uint24","internalType":"uint24"},{"name":"tickSpacing","type":"int24","internalType":"int24"},{"name":"hooks","type":"address","internalType":"contract IHooks"}]},{"name":"newDynamicLPFee","type":"uint24","internalType":"uint24"}],"outputs":[],"stateMutability":"nonpayable"},{"type":"event","name":"Approval","inputs":[{"name":"owner","type":"address","indexed":true,"internalType":"address"},{"name":"spender","type":"address","indexed":true,"internalType":"address"},{"name":"id","type":"uint256","indexed":true,"internalType":"uint256"},{"name":"amount","type":"uint256","indexed":false,"internalType":"uint256"}],"anonymous":false},{"type":"event","name":"Initialize","inputs":[{"name":"id","type":"bytes32","indexed":false,"internalType":"PoolId"},{"name":"currency0","type":"address","indexed":true,"internalType":"Currency"},{"name":"currency1","type":"address","indexed":true,"internalType":"Currency"},{"name":"fee","type":"uint24","indexed":false,"internalType":"uint24"},{"name":"tickSpacing","type":"int24","indexed":false,"internalType":"int24"},{"name":"hooks","type":"address","indexed":false,"internalType":"contract IHooks"}],"anonymous":false},{"type":"event","name":"ModifyLiquidity","inputs":[{"name":"id","type":"bytes32","indexed":true,"internalType":"PoolId"},{"name":"sender","type":"address","indexed":true,"internalType":"address"},{"name":"tickLower","type":"int24","indexed":false,"internalType":"int24"},{"name":"tickUpper","type":"int24","indexed":false,"internalType":"int24"},{"name":"liquidityDelta","type":"int256","indexed":false,"internalType":"int256"}],"anonymous":false},{"type":"event","name":"OperatorSet","inputs":[{"name":"owner","type":"address","indexed":true,"internalType":"address"},{"name":"operator","type":"address","indexed":true,"internalType":"address"},{"name":"approved","type":"bool","indexed":false,"internalType":"bool"}],"anonymous":false},{"type":"event","name":"OwnershipTransferred","inputs":[{"name":"user","type":"address","indexed":true,"internalType":"address"},{"name":"newOwner","type":"address","indexed":true,"internalType":"address"}],"anonymous":false},{"type":"event","name":"ProtocolFeeControllerUpdated","inputs":[{"name":"protocolFeeController","type":"address","indexed":false,"internalType":"address"}],"anonymous":false},{"type":"event","name":"ProtocolFeeUpdated","inputs":[{"name":"id","type":"bytes32","indexed":true,"internalType":"PoolId"},{"name":"protocolFee","type":"uint24","indexed":false,"internalType":"uint24"}],"anonymous":false},{"type":"event","name":"Swap","inputs":[{"name":"id","type":"bytes32","indexed":true,"internalType":"PoolId"},{"name":"sender","type":"address","indexed":false,"internalType":"address"},{"name":"amount0","type":"int128","indexed":false,"internalType":"int128"},{"name":"amount1","type":"int128","indexed":false,"internalType":"int128"},{"name":"sqrtPriceX96","type":"uint160","indexed":false,"internalType":"uint160"},{"name":"liquidity","type":"uint128","indexed":false,"internalType":"uint128"},{"name":"tick","type":"int24","indexed":false,"internalType":"int24"},{"name":"fee","type":"uint24","indexed":false,"internalType":"uint24"}],"anonymous":false},{"type":"event","name":"Transfer","inputs":[{"name":"caller","type":"address","indexed":false,"internalType":"address"},{"name":"from","type":"address","indexed":true,"internalType":"address"},{"name":"to","type":"address","indexed":true,"internalType":"address"},{"name":"id","type":"uint256","indexed":true,"internalType":"uint256"},{"name":"amount","type":"uint256","indexed":false,"internalType":"uint256"}],"anonymous":false},{"type":"error","name":"AlreadyUnlocked","inputs":[]},{"type":"error","name":"CurrenciesOutOfOrderOrEqual","inputs":[]},{"type":"error","name":"CurrencyNotSettled","inputs":[]},{"type":"error","name":"DelegateCallNotAllowed","inputs":[]},{"type":"error","name":"InvalidCaller","inputs":[]},{"type":"error","name":"InvalidProtocolFee","inputs":[]},{"type":"error","name":"ManagerLocked","inputs":[]},{"type":"error","name":"NonZeroNativeValue","inputs":[]},{"type":"error","name":"PoolNotInitialized","inputs":[]},{"type":"error","name":"ProtocolFeeCannotBeFetched","inputs":[]},{"type":"error","name":"SwapAmountCannotBeZero","inputs":[]},{"type":"error","name":"TickSpacingTooLarge","inputs":[]},{"type":"error","name":"TickSpacingTooSmall","inputs":[]},{"type":"error","name":"UnauthorizedDynamicLPFeeUpdate","inputs":[]}],"bytecode":{"object":"0x60c060405234801562000010575f80fd5b50604051620064d3380380620064d3833981016040819052620000339162000081565b5f80546001600160a01b031916339081178255604051839282917f8be0079c531659141344cd1fd0a4f28419497f9722a3daafe3b4186f6b6457e0908290a350608052503060a05262000099565b5f6020828403121562000092575f80fd5b5051919050565b60805160a051616411620000c25f395f611d1e01525f8181612a0f0152612a8301526164115ff3fe6080604052600436106101f4575f3560e01c806360460f0611610117578063a5841194116100ac578063f135baaa1161007c578063f3cd914c11610062578063f3cd914c14610678578063f5298aca14610697578063fe99049a146106b6575f80fd5b8063f135baaa1461063a578063f2fde38b14610659575f80fd5b8063a584119414610597578063b6363cf2146105b6578063dbd035ff146105ef578063f02de3b21461060e575f80fd5b80638161b874116100e75780638161b874146104d15780638da5cb5b146104f057806397e8cd4e146105405780639bf6645f1461056b575f80fd5b806360460f061461046b578063695c5bf5146104805780636a256b291461049f5780637e87ce7d146104b2575f80fd5b80632d7713891161018d578063527596511161015d57806352759651146103bd578063558a7297146103dc578063598af9e7146103fb5780635a6bcfda14610437575f80fd5b80632d7713891461033457806335fd631a14610353578063426a84931461037f57806348c894911461039e575f80fd5b80630b0d9c09116101c85780630b0d9c09146102b6578063156e29f6146102d75780631e2eaeaf146102f6578063234266d714610315575f80fd5b8062fdd58e146101f857806301ffc9a71461024157806307eff0dd14610270578063095bcdb614610297575b5f80fd5b348015610203575f80fd5b5061022e6102123660046154de565b600460209081525f928352604080842090915290825290205481565b6040519081526020015b60405180910390f35b34801561024c575f80fd5b5061026061025b366004615508565b6106d5565b6040519015158152602001610238565b34801561027b575f80fd5b50610284600181565b60405160029190910b8152602001610238565b3480156102a2575f80fd5b506102606102b1366004615547565b61076d565b3480156102c1575f80fd5b506102d56102d0366004615579565b610841565b005b3480156102e2575f80fd5b506102d56102f1366004615547565b6108cb565b348015610301575f80fd5b5061022e6103103660046155b7565b610932565b348015610320575f80fd5b5061022e61032f366004615722565b61093c565b34801561033f575f80fd5b506102d561034e366004615787565b610a32565b34801561035e575f80fd5b5061037261036d3660046157a2565b610b30565b60405161023891906157e4565b34801561038a575f80fd5b50610260610399366004615547565b610b60565b3480156103a9575f80fd5b506103726103b8366004615834565b610bd1565b3480156103c8575f80fd5b506102d56103d7366004615873565b610d23565b3480156103e7575f80fd5b506102606103f63660046158b4565b610dc5565b348015610406575f80fd5b5061022e610415366004615579565b600560209081525f938452604080852082529284528284209052825290205481565b348015610442575f80fd5b506104566104513660046158de565b610e5f565b60408051928352602083019190915201610238565b348015610476575f80fd5b50610284617fff81565b34801561048b575f80fd5b5061028461049a36600461599f565b611052565b61022e6104ad366004615787565b6112da565b3480156104bd575f80fd5b506102d56104cc366004615873565b6113d0565b3480156104dc575f80fd5b5061022e6104eb366004615579565b6114bb565b3480156104fb575f80fd5b505f5461051b9073ffffffffffffffffffffffffffffffffffffffff1681565b60405173ffffffffffffffffffffffffffffffffffffffff9091168152602001610238565b34801561054b575f80fd5b5061022e61055a366004615787565b60016020525f908152604090205481565b348015610576575f80fd5b5061058a6105853660046159e7565b611597565b6040516102389190615a56565b3480156105a2575f80fd5b5061022e6105b1366004615787565b6115c4565b3480156105c1575f80fd5b506102606105d0366004615a99565b600360209081525f928352604080842090915290825290205460ff1681565b3480156105fa575f80fd5b5061058a6106093660046159e7565b611606565b348015610619575f80fd5b5060025461051b9073ffffffffffffffffffffffffffffffffffffffff1681565b348015610645575f80fd5b5061022e6106543660046155b7565b611632565b348015610664575f80fd5b506102d5610673366004615787565b61163c565b348015610683575f80fd5b5061022e610692366004615ad0565b61172b565b3480156106a2575f80fd5b506102d56106b1366004615547565b6118dd565b3480156106c1575f80fd5b506102606106d0366004615b9c565b611944565b5f7f01ffc9a7000000000000000000000000000000000000000000000000000000007fffffffff000000000000000000000000000000000000000000000000000000008316148061076757507f0f632fb3000000000000000000000000000000000000000000000000000000007fffffffff000000000000000000000000000000000000000000000000000000008316145b92915050565b335f908152600460209081526040808320858452909152812080548391908390610798908490615c0c565b909155505073ffffffffffffffffffffffffffffffffffffffff84165f908152600460209081526040808320868452909152812080548492906107dc908490615c1f565b9091555050604080513380825260208201859052859273ffffffffffffffffffffffffffffffffffffffff8816927f1b3d7edb2e9c0b0e7c525b20aaaef0f5940d2ed71663c7d39266ecafac72885991015b60405180910390a45060015b9392505050565b7fc090fc4683624cfc3884e9d8de5eca132f2d0ec062aff75d43c0465d5ceeab235c610890576108907f54e3ca0d00000000000000000000000000000000000000000000000000000000611b30565b6108a58361089d83611b38565b5f0333611b5c565b6108c673ffffffffffffffffffffffffffffffffffffffff84168383611bea565b505050565b7fc090fc4683624cfc3884e9d8de5eca132f2d0ec062aff75d43c0465d5ceeab235c61091a5761091a7f54e3ca0d00000000000000000000000000000000000000000000000000000000611b30565b6109278261089d83611b38565b6108c6838383611c67565b5f81545f5260205ff35b5f7fc090fc4683624cfc3884e9d8de5eca132f2d0ec062aff75d43c0465d5ceeab235c61098c5761098c7f54e3ca0d00000000000000000000000000000000000000000000000000000000611b30565b610994611d06565b5f6109b36109a38860a0902090565b5f90815260066020526040902090565b90506109be81611d6e565b60808701516109e79073ffffffffffffffffffffffffffffffffffffffff168888888888611db8565b6109f2818787611eaa565b91506109ff878333611fb4565b6080870151610a289073ffffffffffffffffffffffffffffffffffffffff168888888888611fdc565b5095945050505050565b5f5473ffffffffffffffffffffffffffffffffffffffff163314610ab7576040517f08c379a000000000000000000000000000000000000000000000000000000000815260206004820152600c60248201527f554e415554484f52495a4544000000000000000000000000000000000000000060448201526064015b60405180910390fd5b600280547fffffffffffffffffffffffff00000000000000000000000000000000000000001673ffffffffffffffffffffffffffffffffffffffff83169081179091556040519081527fb4bd8ef53df690b9943d3318996006dbb82a25f54719d8c8035b516a2a5b8acc9060200160405180910390a150565b606060205f528160051b6020528160051b60400160405b84548152600190940193602001818110610b475750805ff35b335f81815260056020908152604080832073ffffffffffffffffffffffffffffffffffffffff881680855290835281842087855290925280832085905551919285927fb3fd5071835887567a0671151121894ddccc2842f1d10bedad13e0d17cace9a79061082e9087815260200190565b60607fc090fc4683624cfc3884e9d8de5eca132f2d0ec062aff75d43c0465d5ceeab235c15610c2357610c237f5090d6c600000000000000000000000000000000000000000000000000000000611b30565b610c2b612029565b6040517f91dd734600000000000000000000000000000000000000000000000000000000815233906391dd734690610c699086908690600401615c79565b5f604051808303815f875af1158015610c84573d5f803e3d5ffd5b505050506040513d5f823e601f3d9081017fffffffffffffffffffffffffffffffffffffffffffffffffffffffffffffffe0168201604052610cc99190810190615c8c565b90507f7d4b3164c6e45b97e7d87b7125a44c5828d005af88f9d751cfd78729c5d99a0b5c15610d1b57610d1b7f5212cba100000000000000000000000000000000000000000000000000000000611b30565b61076761204f565b604082015162ffffff1662800000141580610d6e5750816080015173ffffffffffffffffffffffffffffffffffffffff163373ffffffffffffffffffffffffffffffffffffffff1614155b15610d9c57610d9c7f30d2164100000000000000000000000000000000000000000000000000000000611b30565b610daa8162ffffff16612074565b60a082205f8181526006602052604090206108c690836120ad565b335f81815260036020908152604080832073ffffffffffffffffffffffffffffffffffffffff871680855290835281842080547fffffffffffffffffffffffffffffffffffffffffffffffffffffffffffffff001687151590811790915591519182529293917fceb576d9f15e4e200fdb5096d64d5dfd667e16def20c1eefd14256d8e3faa267910160405180910390a350600192915050565b5f807fc090fc4683624cfc3884e9d8de5eca132f2d0ec062aff75d43c0465d5ceeab235c610eb057610eb07f54e3ca0d00000000000000000000000000000000000000000000000000000000611b30565b610eb8611d06565b60a086205f818152600660205260409020610ed281611d6e565b6080880151610efa9073ffffffffffffffffffffffffffffffffffffffff1689898989612106565b5f610f6e6040518060c001604052803373ffffffffffffffffffffffffffffffffffffffff1681526020018a5f015160020b81526020018a6020015160020b8152602001610f4b8b6040015161224b565b600f0b81526060808d015160020b60208301528b01516040909101528390612272565b94509050610f7c818561269b565b94503373ffffffffffffffffffffffffffffffffffffffff16837f541c041c2cce48e614b3de043c9280f06b6164c0a1741649e2de3c3d375f79748a5f01518b602001518c60400151604051610fed93929190600293840b81529190920b6020820152604081019190915260600190565b60405180910390a360808901515f906110209073ffffffffffffffffffffffffffffffffffffffff168b8b898c8c6126ce565b9096509050801561103a5761103a8a828c60800151611fb4565b6110458a8733611fb4565b5050505094509492505050565b5f61105b611d06565b6060850151617fff60029190910b1315611098576110987fb02b5dc200000000000000000000000000000000000000000000000000000000611b30565b600160020b856060015160020b12156110d4576110d47f16fe769600000000000000000000000000000000000000000000000000000000611b30565b8451602086015173ffffffffffffffffffffffffffffffffffffffff908116911610611123576111237feaa6c6eb00000000000000000000000000000000000000000000000000000000611b30565b6111548560400151866080015173ffffffffffffffffffffffffffffffffffffffff166128a090919063ffffffff16565b611188576080850151611188907fe65af6a0000000000000000000000000000000000000000000000000000000009061296e565b5f61119b866040015162ffffff1661297a565b60808701519091506111c69073ffffffffffffffffffffffffffffffffffffffff168787878761299f565b60a086205f6111d4886129eb565b5f8481526006602052604090209092506111f19150888386612bdc565b608089015190945061121d9073ffffffffffffffffffffffffffffffffffffffff168989878a8a612cb7565b876020015173ffffffffffffffffffffffffffffffffffffffff16885f015173ffffffffffffffffffffffffffffffffffffffff167f3fd553db44f207b1f41348cfc4d251860814af9eadc470e8e7895e4d120511f4848b604001518c606001518d608001516040516112c7949392919093845262ffffff92909216602084015260020b604083015273ffffffffffffffffffffffffffffffffffffffff16606082015260800190565b60405180910390a3505050949350505050565b5f7fc090fc4683624cfc3884e9d8de5eca132f2d0ec062aff75d43c0465d5ceeab235c61132a5761132a7f54e3ca0d00000000000000000000000000000000000000000000000000000000611b30565b73ffffffffffffffffffffffffffffffffffffffff821661134c5750346113b8565b341561137b5761137b7f19d245cf00000000000000000000000000000000000000000000000000000000611b30565b5f61139b8373ffffffffffffffffffffffffffffffffffffffff16612d05565b90505f6113a7846115c4565b90506113b38282615c0c565b925050505b6113cb826113c583611b38565b33611b5c565b919050565b60025473ffffffffffffffffffffffffffffffffffffffff163314611418576114187f48f5c3ed00000000000000000000000000000000000000000000000000000000611b30565b6103e9610fff821610623e900062ffffff8316101661145a5761145a7fba97f83800000000000000000000000000000000000000000000000000000000611b30565b60a0822061147c82611476835f90815260066020526040902090565b90612d97565b60405162ffffff8316815281907fe9c42593e71f84403b84352cd168d693e2c9fcd1fdbcc3feb21d92b43e6696f99060200160405180910390a2505050565b6002545f9073ffffffffffffffffffffffffffffffffffffffff163314611505576115057f48f5c3ed00000000000000000000000000000000000000000000000000000000611b30565b81156115115781611537565b73ffffffffffffffffffffffffffffffffffffffff83165f908152600160205260409020545b73ffffffffffffffffffffffffffffffffffffffff84165f90815260016020526040812080549293508392909190611570908490615c0c565b9091555061083a905073ffffffffffffffffffffffffffffffffffffffff84168583611bea565b6060604060045f378160051b6040018360405b81355c8152602091820191018281106115aa575b5050805ff35b5f6115e48273ffffffffffffffffffffffffffffffffffffffff16612deb565b90506113cb73ffffffffffffffffffffffffffffffffffffffff831682612e9a565b6060604060045f378160051b6040018360405b813554815260209182019101828110156115be57611619565b5f815c5f5260205ff35b5f5473ffffffffffffffffffffffffffffffffffffffff1633146116bc576040517f08c379a000000000000000000000000000000000000000000000000000000000815260206004820152600c60248201527f554e415554484f52495a454400000000000000000000000000000000000000006044820152606401610aae565b5f80547fffffffffffffffffffffffff00000000000000000000000000000000000000001673ffffffffffffffffffffffffffffffffffffffff83169081178255604051909133917f8be0079c531659141344cd1fd0a4f28419497f9722a3daafe3b4186f6b6457e09190a350565b5f7fc090fc4683624cfc3884e9d8de5eca132f2d0ec062aff75d43c0465d5ceeab235c61177b5761177b7f54e3ca0d00000000000000000000000000000000000000000000000000000000611b30565b611783611d06565b83602001515f036117b7576117b77fbe8b850700000000000000000000000000000000000000000000000000000000611b30565b60a085205f8181526006602052604090206117d181611d6e565b60808701515f90819081906117ff9073ffffffffffffffffffffffffffffffffffffffff168b8b8b8b612efa565b80935081955082945050505061187b84866040518060a001604052808e6060015160020b81526020018d5f0151151581526020018681526020018d6040015173ffffffffffffffffffffffffffffffffffffffff1681526020018562ffffff168152508c5f0151611874578d6020015161307b565b8d5161307b565b60808b01519096505f92506118ac915073ffffffffffffffffffffffffffffffffffffffff168a8a888b8b88613198565b909550905080156118c6576118c689828b60800151611fb4565b6118d1898633611fb4565b50505050949350505050565b7fc090fc4683624cfc3884e9d8de5eca132f2d0ec062aff75d43c0465d5ceeab235c61192c5761192c7f54e3ca0d00000000000000000000000000000000000000000000000000000000611b30565b611939826113c583611b38565b6108c6838383613333565b5f3373ffffffffffffffffffffffffffffffffffffffff86161480159061199b575073ffffffffffffffffffffffffffffffffffffffff85165f90815260036020908152604080832033845290915290205460ff16155b15611a445773ffffffffffffffffffffffffffffffffffffffff85165f90815260056020908152604080832033845282528083208684529091529020547fffffffffffffffffffffffffffffffffffffffffffffffffffffffffffffffff8114611a4257611a098382615c0c565b73ffffffffffffffffffffffffffffffffffffffff87165f90815260056020908152604080832033845282528083208884529091529020555b505b73ffffffffffffffffffffffffffffffffffffffff85165f90815260046020908152604080832086845290915281208054849290611a83908490615c0c565b909155505073ffffffffffffffffffffffffffffffffffffffff84165f90815260046020908152604080832086845290915281208054849290611ac7908490615c1f565b90915550506040805133815260208101849052849173ffffffffffffffffffffffffffffffffffffffff80881692908916917f1b3d7edb2e9c0b0e7c525b20aaaef0f5940d2ed71663c7d39266ecafac728859910160405180910390a45060015b949350505050565b805f5260045ffd5b5f6f800000000000000000000000000000008210611b5857611b5861344a565b5090565b81600f0b5f03611b6b57505050565b5f81815273ffffffffffffffffffffffffffffffffffffffff8416602052604081205c90611b9d600f85900b83615d47565b9050805f03611bb357611bae613457565b611bc2565b815f03611bc257611bc26134a5565b611be373ffffffffffffffffffffffffffffffffffffffff861684836134f3565b5050505050565b73ffffffffffffffffffffffffffffffffffffffff8316611c1e575f805f8084865af16108c65763f4b3b1bc5f526004601cfd5b81601452806034526fa9059cbb0000000000000000000000005f5260205f604460105f875af13d1560015f51141716611c5e5763f27f64e45f526004601cfd5b5f603452505050565b73ffffffffffffffffffffffffffffffffffffffff83165f90815260046020908152604080832085845290915281208054839290611ca6908490615c1f565b90915550506040805133815260208101839052839173ffffffffffffffffffffffffffffffffffffffff8616915f917f1b3d7edb2e9c0b0e7c525b20aaaef0f5940d2ed71663c7d39266ecafac72885991015b60405180910390a4505050565b3073ffffffffffffffffffffffffffffffffffffffff7f00000000000000000000000000000000000000000000000000000000000000001614611d6c57611d6c7f0d89438e00000000000000000000000000000000000000000000000000000000611b30565b565b805473ffffffffffffffffffffffffffffffffffffffff165f03611db557611db57f486aa30700000000000000000000000000000000000000000000000000000000611b30565b50565b853373ffffffffffffffffffffffffffffffffffffffff821614611ea1576020871615611ea157611e9f63b6a8b0fa60e01b338888888888604051602401611e0596959493929190615d6e565b604080517fffffffffffffffffffffffffffffffffffffffffffffffffffffffffffffffe08184030181529190526020810180517bffffffffffffffffffffffffffffffffffffffffffffffffffffffff167fffffffff000000000000000000000000000000000000000000000000000000009093169290921790915273ffffffffffffffffffffffffffffffffffffffff891690613509565b505b50505050505050565b60038301545f906fffffffffffffffffffffffffffffffff16808203611ef357611ef37fa74f97ab00000000000000000000000000000000000000000000000000000000611b30565b611f2a611eff85611b38565b5f03611f0a85611b38565b5f0360809190911b6fffffffffffffffffffffffffffffffff9091161790565b91508315611f6c57611f6084700100000000000000000000000000000000836fffffffffffffffffffffffffffffffff166135d3565b60018601805490910190555b8215611fac57611fa083700100000000000000000000000000000000836fffffffffffffffffffffffffffffffff166135d3565b60028601805490910190555b509392505050565b8251611fca90611fc48460801d90565b83611b5c565b6108c68360200151611fc484600f0b90565b853373ffffffffffffffffffffffffffffffffffffffff821614611ea1576010871615611ea157611e9f63e1b4af6960e01b338888888888604051602401611e0596959493929190615d6e565b60017fc090fc4683624cfc3884e9d8de5eca132f2d0ec062aff75d43c0465d5ceeab235d565b5f7fc090fc4683624cfc3884e9d8de5eca132f2d0ec062aff75d43c0465d5ceeab235d565b620f424062ffffff82161115611db557611db57ffc5bee1200000000000000000000000000000000000000000000000000000000611b30565b6120b682611d6e565b81547fffffff000000ffffffffffffffffffffffffffffffffffffffffffffffffffff167cffffff000000000000000000000000000000000000000000000000000060d083901b16175b90915550565b843373ffffffffffffffffffffffffffffffffffffffff821614612243575f846040015113801561213a5750610800861615155b15612203576121fd63259982e560e01b3387878787604051602401612163959493929190615e07565b604080517fffffffffffffffffffffffffffffffffffffffffffffffffffffffffffffffe08184030181529190526020810180517bffffffffffffffffffffffffffffffffffffffffffffffffffffffff167fffffffff000000000000000000000000000000000000000000000000000000009093169290921790915273ffffffffffffffffffffffffffffffffffffffff881690613509565b50612243565b5f84604001511315801561221a5750610200861615155b1561224357611ea16321d0ee7060e01b3387878787604051602401612163959493929190615e07565b505050505050565b5f6f80000000000000000000000000000000820160801c61226a575090565b6113cb61344a565b6060810151602082015160408301515f9283929091612291828261368e565b604080516080810182525f80825260208201819052918101829052606081019190915283600f0b5f14612460576122ca8884865f613759565b6fffffffffffffffffffffffffffffffff166020830152151581526122f28883866001613759565b6fffffffffffffffffffffffffffffffff166060830152151560408201525f600f85900b12612425575f61236d88608001517ffffffffffffffffffffffffffffffffffffffffffffffffffffffffffff276188190058102620d89e8829005820203056001016fffffffffffffffffffffffffffffffff0490565b9050806fffffffffffffffffffffffffffffffff1682602001516fffffffffffffffffffffffffffffffff1611156123c9576123c97fb8e3c385000000000000000000000000000000000000000000000000000000008561296e565b806fffffffffffffffffffffffffffffffff1682606001516fffffffffffffffffffffffffffffffff161115612423576124237fb8e3c385000000000000000000000000000000000000000000000000000000008461296e565b505b8051156124415760808701516124419060058a0190859061381c565b8060400151156124605760808701516124609060058a0190849061381c565b5f8061246d8a868661385e565b8a5160a08c01516026908152600688815260038a90525f928352603a600c20918390529082528d0160205260408120929450909250806124af838a8787613912565b915091506124e46124bf83611b38565b6124c883611b38565b6fffffffffffffffffffffffffffffffff1660809190911b1790565b995050505050505f84600f0b121561254d5780511561252057600283810b5f90815260048a016020526040812081815560018101829055909101555b80604001511561254d57600282810b5f90815260048a016020526040812081815560018101829055909101555b5082600f0b5f146126915786545f806125698360a01c60020b90565b73ffffffffffffffffffffffffffffffffffffffff8416915091508460020b8260020b12156125c5576125be6125b86125b36125a488613a43565b6125ad88613a43565b8a613d20565b61224b565b60801b90565b975061268d565b8360020b8260020b1215612668576125fc6125e66125b3836125ad88613a43565b6124c86125b36125f589613a43565b858b613d58565b60038b0154909850612620906fffffffffffffffffffffffffffffffff1687613d84565b60038b0180547fffffffffffffffffffffffffffffffff00000000000000000000000000000000166fffffffffffffffffffffffffffffffff9290921691909117905561268d565b61268a5f6124c86125b361267b89613a43565b61268489613a43565b8b613d58565b97505b5050505b5050509250929050565b5f608082811d9084901d01600f83810b9085900b016126c56126bc8361224b565b6124c88361224b565b95945050505050565b5f8073ffffffffffffffffffffffffffffffffffffffff881633036126f757508390505f612895565b8491505f866040015113156127dd576104008816156127d8576127c933888888888860405160240161272e96959493929190615ece565b604080517fffffffffffffffffffffffffffffffffffffffffffffffffffffffffffffffe08184030181529190526020810180517bffffffffffffffffffffffffffffffffffffffffffffffffffffffff167f5a2a81000000000000000000000000000000000000000000000000000000000017905260028a1615155b73ffffffffffffffffffffffffffffffffffffffff8b169190613d9e565b90506127d58282613dc6565b91505b612895565b6101008816156128955761288633888888888860405160240161280596959493929190615ece565b604080517fffffffffffffffffffffffffffffffffffffffffffffffffffffffffffffffe08184030181529190526020810180517bffffffffffffffffffffffffffffffffffffffffffffffffffffffff167f8db2b6520000000000000000000000000000000000000000000000000000000017905260018a1615156127ab565b90506128928282613dc6565b91505b965096945050505050565b5f608083161580156128b457506008831615155b156128c057505f610767565b604083161580156128d357506004831615155b156128df57505f610767565b61040083161580156128f357506002831615155b156128ff57505f610767565b610100831615801561291357506001831615155b1561291f57505f610767565b73ffffffffffffffffffffffffffffffffffffffff83161561295d57613fff831615158061295857506280000062ffffff83161461083a565b61083a565b5062ffffff16628000001415919050565b815f528060045260245ffd5b5f6280000062ffffff83160361299157505f919050565b611b588262ffffff16612074565b843373ffffffffffffffffffffffffffffffffffffffff8216146122435761200086161561224357611ea1633440d82060e01b3387878787604051602401612163959493929190615f90565b6002545f90819073ffffffffffffffffffffffffffffffffffffffff1615612bd7577f00000000000000000000000000000000000000000000000000000000000000005a1015612a5e57612a5e7f1ee4970200000000000000000000000000000000000000000000000000000000611b30565b6002546040515f91829173ffffffffffffffffffffffffffffffffffffffff909116907f000000000000000000000000000000000000000000000000000000000000000090612ab1908890602401616025565b604080517fffffffffffffffffffffffffffffffffffffffffffffffffffffffffffffffe08184030181529181526020820180517bffffffffffffffffffffffffffffffffffffffffffffffffffffffff167f553bfc370000000000000000000000000000000000000000000000000000000017905251612b329190616082565b5f604051808303815f8787f1925050503d805f8114612b6c576040519150601f19603f3d011682016040523d82523d5f602084013e612b71565b606091505b5091509150811580612b84575060208151115b15612b9557505f9485945092505050565b602081015162ffffff811681148015612bbf57506103e9610fff821610623e900062ffffff831610165b612bca575f80612bce565b6001815b90955093505050505b915091565b83545f9073ffffffffffffffffffffffffffffffffffffffff1615612c2457612c247f7983c05100000000000000000000000000000000000000000000000000000000611b30565b612c2d84613de7565b90507cffffff000000000000000000000000000000000000000000000000000060d083901b1676ffffff000000000000000000000000000000000000000060a083901b1673ffffffffffffffffffffffffffffffffffffffff86161760b885901b79ffffff0000000000000000000000000000000000000000000000161717909455509192915050565b853373ffffffffffffffffffffffffffffffffffffffff821614611ea157611000871615611ea157611e9f63a910f80f60e01b338888888888604051602401611e059695949392919061609d565b7f1e0745a7db1623981f0b2a5d4232364c00787266eb75ad546f190e6cebe9bd955f908152602082905260408120805c91829003612d6657612d667f8774be4800000000000000000000000000000000000000000000000000000000611b30565b7fffffffffffffffffffffffffffffffffffffffffffffffffffffffffffffffff8203612d91575f91505b50919050565b612da082611d6e565b81547fffffffffffff000000ffffffffffffffffffffffffffffffffffffffffffffff1679ffffff000000000000000000000000000000000000000000000060b883901b1617612100565b5f73ffffffffffffffffffffffffffffffffffffffff8216612e0e575047919050565b6040517f70a0823100000000000000000000000000000000000000000000000000000000815230600482015273ffffffffffffffffffffffffffffffffffffffff8316906370a0823190602401602060405180830381865afa158015612e76573d5f803e3d5ffd5b505050506040513d601f19601f82011682018060405250810190610767919061613d565b805f03612ec457507fffffffffffffffffffffffffffffffffffffffffffffffffffffffffffffffff5b7f1e0745a7db1623981f0b2a5d4232364c00787266eb75ad546f190e6cebe9bd955f90815260208390526040902081815d505050565b60208301515f8073ffffffffffffffffffffffffffffffffffffffff88163303612f26575f9150613070565b6080881615613070575f612fc889338a8a8a8a604051602401612f4d959493929190616154565b604080517fffffffffffffffffffffffffffffffffffffffffffffffffffffffffffffffe08184030181529190526020810180517bffffffffffffffffffffffffffffffffffffffffffffffffffffffff167f575e24b400000000000000000000000000000000000000000000000000000000179052613509565b9050612fe4886040015162ffffff1662ffffff16628000001490565b15612ff157606081015191505b600889161561306e57604081015192505f61300c8460801d90565b905080600f0b5f1461306c575f8512613029600f83900b87615d47565b955080613038575f861261303c565b5f86135b1561306a5761306a7ffa0b71d600000000000000000000000000000000000000000000000000000000611b30565b505b505b505b955095509592505050565b5f8080808061308a8988614167565b93509350935093505f8311156130c55773ffffffffffffffffffffffffffffffffffffffff86165f9081526001602052604090208054840190555b877f40e9cecb9f5f1f1c5b9c97dec2917b7ee92e57ba5563708daca94dd84ad7112f336130f28760801d90565b6130fc88600f0b90565b60408087015160a08801516060890151925161318396959493908b9073ffffffffffffffffffffffffffffffffffffffff9788168152600f96870b60208201529490950b60408501529190941660608301526fffffffffffffffffffffffffffffffff93909316608082015260029290920b60a083015262ffffff1660c082015260e00190565b60405180910390a25091979650505050505050565b5f8073ffffffffffffffffffffffffffffffffffffffff891633036131c157508490505f613327565b5f6131cc8460801d90565b90505f6131d985600f0b90565b905060408b16156132ac5761329f6125b3338c8c8c8c8c60405160240161320596959493929190616215565b604080517fffffffffffffffffffffffffffffffffffffffffffffffffffffffffffffffe08184030181529190526020810180517bffffffffffffffffffffffffffffffffffffffffffffffffffffffff167fb47b2fb10000000000000000000000000000000000000000000000000000000017905260048e16151573ffffffffffffffffffffffffffffffffffffffff8f169190613d9e565b6132a990826162dd565b90505b5f81600f0b5f1415806132c2575082600f0b5f14155b1561331f57895160208b01515f13901515146132f6576fffffffffffffffffffffffffffffffff8316608083901b17613310565b6fffffffffffffffffffffffffffffffff8216608084901b175b905061331c8982613dc6565b98505b889450925050505b97509795505050505050565b3373ffffffffffffffffffffffffffffffffffffffff8416811480159061338c575073ffffffffffffffffffffffffffffffffffffffff8085165f9081526003602090815260408083209385168352929052205460ff16155b156134395773ffffffffffffffffffffffffffffffffffffffff8085165f9081526005602090815260408083209385168352928152828220868352905220547fffffffffffffffffffffffffffffffffffffffffffffffffffffffffffffffff8114613437576133fc8382615c0c565b73ffffffffffffffffffffffffffffffffffffffff8087165f9081526005602090815260408083209387168352928152828220888352905220555b505b613444848484614a1e565b50505050565b6393dafdf15f526004601cfd5b7f7d4b3164c6e45b97e7d87b7125a44c5828d005af88f9d751cfd78729c5d99a0b5c600181039050807f7d4b3164c6e45b97e7d87b7125a44c5828d005af88f9d751cfd78729c5d99a0b5d50565b7f7d4b3164c6e45b97e7d87b7125a44c5828d005af88f9d751cfd78729c5d99a0b5c600181019050807f7d4b3164c6e45b97e7d87b7125a44c5828d005af88f9d751cfd78729c5d99a0b5d50565b5f82815260208490526040902081815d50505050565b60605f808351602085015f875af1613535573d61352d576336bc48c55f526004601cfd5b3d5f803e3d5ffd5b6040519050601f19603f3d011681016040523d81523d5f602083013e60208201517fffffffff0000000000000000000000000000000000000000000000000000000016613583826020015190565b7fffffffff000000000000000000000000000000000000000000000000000000001614610767576107677f1e048e1d00000000000000000000000000000000000000000000000000000000611b30565b5f838302817fffffffffffffffffffffffffffffffffffffffffffffffffffffffffffffffff85870982811083820303915050808411613611575f80fd5b805f036136235750829004905061083a565b5f848688095f868103871696879004966002600389028118808a02820302808a02820302808a02820302808a02820302808a02820302808a02909103029181900381900460010186841190950394909402919094039290920491909117919091029150509392505050565b8060020b8260020b126136c6576136c67fc4433ed5000000000000000000000000000000000000000000000000000000008383614ab4565b7ffffffffffffffffffffffffffffffffffffffffffffffffffffffffffff27618600283900b121561371c5761371c7fd5e2f7ab000000000000000000000000000000000000000000000000000000008361296e565b620d89e8600282900b1315613755576137557f1ad777f8000000000000000000000000000000000000000000000000000000008261296e565b5050565b600283900b5f908152600485016020526040812080548291906fffffffffffffffffffffffffffffffff81169060801d6137938288613d84565b6fffffffffffffffffffffffffffffffff808216159084168015919091141596509094505f036137e657885460a01c60020b60020b8860020b136137e6576001808a0154908401556002808a0154908401555b5f866137fb576137f688836162dd565b613805565b613805888361632b565b90508060801b851784555050505094509492505050565b808207156138395763d4d8f3e65f5281602052806040526044601cfd5b80820591508160081d5f528260205260405f20600160ff84161b815418815550505050565b600282810b5f81815260048601602052604080822085850b83529082208754929485949293919260a09290921c900b908112156138b4578160010154836001015403945081600201548360020154039350613907565b8560020b8160020b126138e0578260010154826001015403945082600201548260020154039350613907565b81600101548360010154896001015403039450816002015483600201548960020154030393505b505050935093915050565b83545f9081906fffffffffffffffffffffffffffffffff16600f86900b820361397c57806fffffffffffffffffffffffffffffffff165f03613977576139777faefeb92400000000000000000000000000000000000000000000000000000000611b30565b6139c3565b6139868187613d84565b87547fffffffffffffffffffffffffffffffff00000000000000000000000000000000166fffffffffffffffffffffffffffffffff919091161787555b6139f787600101548603826fffffffffffffffffffffffffffffffff167001000000000000000000000000000000006135d3565b9250613a2d87600201548503826fffffffffffffffffffffffffffffffff167001000000000000000000000000000000006135d3565b6001880195909555505060029094015591929050565b5f60ff82901d80830118620d89e8811115613a655763ce8ef7fc5f526004601cfd5b7001fffcb933bd6fad37aa2d162d1a5940016001821602700100000000000000000000000000000000186002821615613aae576ffff97272373d413259a46990580e213a0260801c5b6004821615613acd576ffff2e50f5f656932ef12357cf3c7fdcc0260801c5b6008821615613aec576fffe5caca7e10e4e61c3624eaa0941cd00260801c5b6010821615613b0b576fffcb9843d60f6159c9db58835c9266440260801c5b6020821615613b2a576fff973b41fa98c081472e6896dfb254c00260801c5b6040821615613b49576fff2ea16466c96a3843ec78b326b528610260801c5b6080821615613b68576ffe5dee046a99a2a811c461f1969c30530260801c5b610100821615613b88576ffcbe86c7900a88aedcffc83b479aa3a40260801c5b610200821615613ba8576ff987a7253ac413176f2b074cf7815e540260801c5b610400821615613bc8576ff3392b0822b70005940c7a398e4b70f30260801c5b610800821615613be8576fe7159475a2c29b7443b29c7fa6e889d90260801c5b611000821615613c08576fd097f3bdfd2022b8845ad8f792aa58250260801c5b612000821615613c28576fa9f746462d870fdf8a65dc1f90e061e50260801c5b614000821615613c48576f70d869a156d2a1b890bb3df62baf32f70260801c5b618000821615613c68576f31be135f97d08fd981231505542fcfa60260801c5b62010000821615613c89576f09aa508b5b7a84e1c677de54f3e99bc90260801c5b62020000821615613ca9576e5d6af8dedb81196699c329225ee6040260801c5b62040000821615613cc8576d2216e584f5fa1ea926041bedfe980260801c5b62080000821615613ce5576b048a170391f7dc42444e8fa20260801c5b5f841315613d10577fffffffffffffffffffffffffffffffffffffffffffffffffffffffffffffffff045b63ffffffff0160201c9392505050565b5f8082600f0b12613d4757613d40613d3b8585856001614ac4565b614beb565b5f03611b28565b611b28613d3b8585855f035f614ac4565b5f8082600f0b12613d7357613d40613d3b8585856001614bf7565b611b28613d3b8585855f035f614bf7565b818101608081901c15610767576393dafdf15f526004601cfd5b5f80613daa8585613509565b905082613dba575f91505061083a565b60400151949350505050565b5f608082811d9084901d03600f83810b9085900b036126c56126bc8361224b565b5f73fffd8963efd1fc6a506488495d951d51639616826401000276a383031115613e18576331efafe85f526004601cfd5b77ffffffffffffffffffffffffffffffffffffffff00000000602083901b166fffffffffffffffffffffffffffffffff811160071b81811c67ffffffffffffffff811160061b90811c63ffffffff811160051b90811c61ffff811160041b90811c60ff8111600390811b91821c600f811160021b90811c918211600190811b92831c97908811961790941790921717909117171760808110613ec257607f810383901c9150613ecc565b80607f0383901b91505b908002607f81811c60ff83811c9190911c800280831c81831c1c800280841c81841c1c800280851c81851c1c800280861c81861c1c800280871c81871c1c800280881c81881c1c800280891c81891c1c8002808a1c818a1c1c8002808b1c818b1c1c8002808c1c818c1c1c8002808d1c818d1c1c8002808e1c9c81901c9c909c1c80029c8d901c9e9d7fffffffffffffffffffffffffffffffffffffffffffffffffffffffffffffff808f0160401b60c09190911c678000000000000000161760c19b909b1c674000000000000000169a909a1760c29990991c672000000000000000169890981760c39790971c671000000000000000169690961760c49590951c670800000000000000169490941760c59390931c670400000000000000169290921760c69190911c670200000000000000161760c79190911c670100000000000000161760c89190911c6680000000000000161760c99190911c6640000000000000161760ca9190911c6620000000000000161760cb9190911c6610000000000000161760cc9190911c6608000000000000161760cd9190911c66040000000000001617693627a301d71055774c8581027ffffffffffffffffffffffffffffffffffd709b7e5480fba5a50fed5e62ffc5568101608090811d906fdb2df09e81959a81455e260799a0632f8301901d600281810b9083900b14614113578873ffffffffffffffffffffffffffffffffffffffff166140eb82613a43565b73ffffffffffffffffffffffffffffffffffffffff16111561410d5781614115565b80614115565b815b9998505050505050505050565b60a01b76ffffff0000000000000000000000000000000000000000167fffffffffffffffffff000000ffffffffffffffffffffffffffffffffffffffff919091161790565b6040805160c0810182525f80825260208201819052918101829052606081018290526080810182905260a08101829052819081908554602086015160038801546fffffffffffffffffffffffffffffffff165f826141cd57610fff60c485901c166141d7565b610fff60b885901c165b60408a81015187525f602088015273ffffffffffffffffffffffffffffffffffffffff86169087015260a085901c60020b606087015261ffff16905082614222578960020154614228565b89600101545b6080868101919091526fffffffffffffffffffffffffffffffff831660a08701528901515f9062400000166142665760d085901c62ffffff16614278565b6142788a6080015162ffffff16614c37565b905081156142a5576142a062ffffff831682620f424082820281810491900615150191010390565b6142a7565b805b60408b01519097505f1390508015816142c7575062ffffff8716620f4240145b156142f5576142f57f9620624600000000000000000000000000000000000000000000000000000000611b30565b89604001515f03614310575f80985098505050505050614a15565b83156143f35760608a015173ffffffffffffffffffffffffffffffffffffffff8681169116106143825761438273ffffffffffffffffffffffffffffffffffffffff86165b60608c01517f7c9c6e8f000000000000000000000000000000000000000000000000000000009190614ab4565b6401000276a373ffffffffffffffffffffffffffffffffffffffff168a6060015173ffffffffffffffffffffffffffffffffffffffff16116143ee5760608a01516143ee907f9e4d7cc7000000000000000000000000000000000000000000000000000000009061296e565b6144b1565b60608a015173ffffffffffffffffffffffffffffffffffffffff8681169116116144365761443673ffffffffffffffffffffffffffffffffffffffff8616614355565b73fffd8963efd1fc6a506488495d951d5263988d2673ffffffffffffffffffffffffffffffffffffffff168a6060015173ffffffffffffffffffffffffffffffffffffffff16106144b15760608a01516144b1907f9e4d7cc7000000000000000000000000000000000000000000000000000000009061296e565b6040805160e0810182525f80825260208201819052918101829052606081018290526080810182905260a0810182905260c08101919091525b8651158061452b57508a6060015173ffffffffffffffffffffffffffffffffffffffff16876040015173ffffffffffffffffffffffffffffffffffffffff16145b6148cf57604087015173ffffffffffffffffffffffffffffffffffffffff16815260608701518b516145629160058f019188614c46565b1515604083015260020b602082018190527ffffffffffffffffffffffffffffffffffffffffffffffffffffffffffff27618126145c0577ffffffffffffffffffffffffffffffffffffffffffffffffffffffffffff2761860208201525b620d89e860020b816020015160020b126145de57620d89e860208201525b6145eb8160200151613a43565b73ffffffffffffffffffffffffffffffffffffffff1660608281018290526040890151908d015161462d928082118918908218021860a08a01518a518c614d5c565b60c085015260a0840152608083015273ffffffffffffffffffffffffffffffffffffffff1660408801528161469e576146698160a00151614beb565b875103875260c0810151608082015161468591613d3b91615c1f565b87602001516146949190616379565b60208801526146d9565b6146b18160c00151826080015101614beb565b875101875260a08101516146c490614beb565b87602001516146d39190615d47565b60208801525b8215614715575f620f4240848360c0015184608001510102816146fe576146fe61639f565b60c084018051929091049182900390529990990198505b60a08701516fffffffffffffffffffffffffffffffff1615614773576147678160c001517001000000000000000000000000000000008960a001516fffffffffffffffffffffffffffffffff166135d3565b60808801805190910190525b806060015173ffffffffffffffffffffffffffffffffffffffff16876040015173ffffffffffffffffffffffffffffffffffffffff160361487a57806040015115614865575f80866147ce578d6001015489608001516147d9565b88608001518e600201545b915091505f6148318f85602001518585600292830b5f908152600490940160205260409093206001810180549092039091559081018054909203909155547001000000000000000000000000000000009004600f0b90565b9050871561483c575f035b61484a8a60a0015182613d84565b6fffffffffffffffffffffffffffffffff1660a08b01525050505b602081015185900360020b60608801526144ea565b805f015173ffffffffffffffffffffffffffffffffffffffff16876040015173ffffffffffffffffffffffffffffffffffffffff16146148ca576148c18760400151613de7565b60020b60608801525b6144ea565b61492c87604001516148ee89606001518961412290919063ffffffff16565b7fffffffffffffffffffffffff00000000000000000000000000000000000000001673ffffffffffffffffffffffffffffffffffffffff9091161790565b8c5560a08701516fffffffffffffffffffffffffffffffff8581169116146149965760a087015160038d0180547fffffffffffffffffffffffffffffffff00000000000000000000000000000000166fffffffffffffffffffffffffffffffff9092169190911790555b846149aa57608087015160028d01556149b5565b608087015160018d01555b811515851515146149e9576149e26149d0886020015161224b565b6124c8895f01518e604001510361224b565b9950614a0e565b614a0b6149fe885f01518d604001510361224b565b6124c8896020015161224b565b99505b5050505050505b92959194509250565b73ffffffffffffffffffffffffffffffffffffffff83165f90815260046020908152604080832085845290915281208054839290614a5d908490615c0c565b9091555050604080513381526020810183905283915f9173ffffffffffffffffffffffffffffffffffffffff8716917f1b3d7edb2e9c0b0e7c525b20aaaef0f5940d2ed71663c7d39266ecafac7288599101611cf9565b825f52816004528060245260445ffd5b5f8373ffffffffffffffffffffffffffffffffffffffff168573ffffffffffffffffffffffffffffffffffffffff161115614afd579293925b84614b0e5762bfc9215f526004601cfd5b7bffffffffffffffffffffffffffffffff000000000000000000000000606084901b1673ffffffffffffffffffffffffffffffffffffffff8686031683614b9a578673ffffffffffffffffffffffffffffffffffffffff16614b8783838973ffffffffffffffffffffffffffffffffffffffff166135d3565b81614b9457614b9461639f565b04614be0565b614be0614bbe83838973ffffffffffffffffffffffffffffffffffffffff16614eef565b8873ffffffffffffffffffffffffffffffffffffffff16808204910615150190565b979650505050505050565b5f80821261226a575090565b5f83850360ff81901d908101186c0100000000000000000000000084614c1e8184846135d3565b9350845f83858409111684019350505050949350505050565b62bfffff81166113cb81612074565b5f808385078113848605038315614cd257600881901d600181810b5f90815260208a905260409020547fffffffffffffffffffffffffffffffffffffffffffffffffffffffffffffffff60ff851692831b800101908116801515955085614cb457888360ff16860302614cc7565b88614cbe82614f1f565b840360ff168603025b965050505050614d52565b6001908101600881901d80830b5f90815260208a905260409020547fffffffffffffffffffffffffffffffffffffffffffffffffffffffffffffffff60ff841694851b011990811680151595509293919285614d3857888360ff0360ff16860102614d4b565b8883614d4383614fca565b0360ff168601025b9650505050505b5094509492505050565b5f80808062ffffff851673ffffffffffffffffffffffffffffffffffffffff808a16908b1610158288128015614e62575f614da28a5f0385620f424003620f42406135d3565b905082614dbb57614db68d8d8d6001614bf7565b614dc8565b614dc88c8e8d6001614ac4565b9650868110614dfc578b9750620f42408414614df357614dee878586620f424003614eef565b614df5565b865b9450614e38565b614e088d8c83866151ab565b975082614e2157614e1c8d898d6001614bf7565b614e2e565b614e2e888e8d6001614ac4565b9650868a5f030394505b82614e4e57614e498d898d5f614ac4565b614e5a565b614e5a888e8d5f614bf7565b955050614ee0565b81614e7857614e738c8c8c5f614ac4565b614e84565b614e848b8d8c5f614bf7565b9450848910614e95578a9650614ea7565b889450614ea48c8b87856151e7565b96505b81614ebe57614eb98c888c6001614bf7565b614ecb565b614ecb878d8c6001614ac4565b9550614edd868485620f424003614eef565b93505b50505095509550955095915050565b5f614efb8484846135d3565b90508180614f0b57614f0b61639f565b8385091561083a576001018061083a575f80fd5b5f808211614f2b575f80fd5b7001000000000000000000000000000000008210614f4b57608091821c91015b680100000000000000008210614f6357604091821c91015b6401000000008210614f7757602091821c91015b620100008210614f8957601091821c91015b6101008210614f9a57600891821c91015b60108210614faa57600491821c91015b60048210614fba57600291821c91015b600282106113cb57600101919050565b5f808211614fd6575f80fd5b5060ff6fffffffffffffffffffffffffffffffff821615615018577fffffffffffffffffffffffffffffffffffffffffffffffffffffffffffffff8001615020565b608082901c91505b67ffffffffffffffff821615615057577fffffffffffffffffffffffffffffffffffffffffffffffffffffffffffffffc00161505f565b604082901c91505b63ffffffff821615615092577fffffffffffffffffffffffffffffffffffffffffffffffffffffffffffffffe00161509a565b602082901c91505b61ffff8216156150cb577ffffffffffffffffffffffffffffffffffffffffffffffffffffffffffffffff0016150d3565b601082901c91505b60ff821615615103577ffffffffffffffffffffffffffffffffffffffffffffffffffffffffffffffff80161510b565b600882901c91505b600f82161561513b577ffffffffffffffffffffffffffffffffffffffffffffffffffffffffffffffffc01615143565b600482901c91505b6003821615615173577ffffffffffffffffffffffffffffffffffffffffffffffffffffffffffffffffe0161517b565b600282901c91505b60018216156113cb577fffffffffffffffffffffffffffffffffffffffffffffffffffffffffffffffff01919050565b5f8315851517156151c357634f2461b85f526004601cfd5b816151da576151d58585856001615218565b6126c5565b6126c58585856001615364565b5f8315851517156151ff57634f2461b85f526004601cfd5b81615210576151d58585855f615364565b6126c58585855f5b5f81156152bd575f73ffffffffffffffffffffffffffffffffffffffff84111561526b57615266846c01000000000000000000000000876fffffffffffffffffffffffffffffffff166135d3565b61528b565b61528b6fffffffffffffffffffffffffffffffff8616606086901b6163cc565b90506152b56152b08273ffffffffffffffffffffffffffffffffffffffff8916615c1f565b615498565b915050611b28565b5f73ffffffffffffffffffffffffffffffffffffffff84111561530957615304846c01000000000000000000000000876fffffffffffffffffffffffffffffffff16614eef565b61532f565b61532f606085901b6fffffffffffffffffffffffffffffffff8716808204910615150190565b905080861161534557634323a5555f526004601cfd5b73ffffffffffffffffffffffffffffffffffffffff8616039050611b28565b5f825f03615373575083611b28565b7bffffffffffffffffffffffffffffffff000000000000000000000000606085901b16821561543e5773ffffffffffffffffffffffffffffffffffffffff8616848102908582816153c6576153c661639f565b040361540357818101828110615401576153f7838973ffffffffffffffffffffffffffffffffffffffff1683614eef565b9350505050611b28565b505b506152b5818561542973ffffffffffffffffffffffffffffffffffffffff8a16836163cc565b6154339190615c1f565b808204910615150190565b73ffffffffffffffffffffffffffffffffffffffff861684028481048714818311166154715763f5c787f15f526004601cfd5b8082036153f76152b08473ffffffffffffffffffffffffffffffffffffffff8b1684614eef565b5f740100000000000000000000000000000000000000008210611b5857611b5861344a565b73ffffffffffffffffffffffffffffffffffffffff81168114611db5575f80fd5b5f80604083850312156154ef575f80fd5b82356154fa816154bd565b946020939093013593505050565b5f60208284031215615518575f80fd5b81357fffffffff000000000000000000000000000000000000000000000000000000008116811461083a575f80fd5b5f805f60608486031215615559575f80fd5b8335615564816154bd565b95602085013595506040909401359392505050565b5f805f6060848603121561558b575f80fd5b8335615596816154bd565b925060208401356155a6816154bd565b929592945050506040919091013590565b5f602082840312156155c7575f80fd5b5035919050565b7f4e487b71000000000000000000000000000000000000000000000000000000005f52604160045260245ffd5b6040516080810167ffffffffffffffff8111828210171561561e5761561e6155ce565b60405290565b803562ffffff811681146113cb575f80fd5b8035600281900b81146113cb575f80fd5b5f60a08284031215615657575f80fd5b60405160a0810181811067ffffffffffffffff8211171561567a5761567a6155ce565b604052905080823561568b816154bd565b8152602083013561569b816154bd565b60208201526156ac60408401615624565b60408201526156bd60608401615636565b606082015260808301356156d0816154bd565b6080919091015292915050565b5f8083601f8401126156ed575f80fd5b50813567ffffffffffffffff811115615704575f80fd5b60208301915083602082850101111561571b575f80fd5b9250929050565b5f805f805f6101008688031215615737575f80fd5b6157418787615647565b945060a0860135935060c0860135925060e086013567ffffffffffffffff81111561576a575f80fd5b615776888289016156dd565b969995985093965092949392505050565b5f60208284031215615797575f80fd5b813561083a816154bd565b5f80604083850312156157b3575f80fd5b50508035926020909101359150565b5f5b838110156157dc5781810151838201526020016157c4565b50505f910152565b602081525f82518060208401526158028160408501602087016157c2565b601f017fffffffffffffffffffffffffffffffffffffffffffffffffffffffffffffffe0169190910160400192915050565b5f8060208385031215615845575f80fd5b823567ffffffffffffffff81111561585b575f80fd5b615867858286016156dd565b90969095509350505050565b5f8060c08385031215615884575f80fd5b61588e8484615647565b915061589c60a08401615624565b90509250929050565b803580151581146113cb575f80fd5b5f80604083850312156158c5575f80fd5b82356158d0816154bd565b915061589c602084016158a5565b5f805f808486036101408112156158f3575f80fd5b6158fd8787615647565b945060807fffffffffffffffffffffffffffffffffffffffffffffffffffffffffffffff608201121561592e575f80fd5b506159376155fb565b61594360a08701615636565b815261595160c08701615636565b602082015260e086013560408201526101008601356060820152925061012085013567ffffffffffffffff811115615987575f80fd5b615993878288016156dd565b95989497509550505050565b5f805f8060e085870312156159b2575f80fd5b6159bc8686615647565b935060a08501356159cc816154bd565b925060c085013567ffffffffffffffff811115615987575f80fd5b5f80602083850312156159f8575f80fd5b823567ffffffffffffffff80821115615a0f575f80fd5b818501915085601f830112615a22575f80fd5b813581811115615a30575f80fd5b8660208260051b8501011115615a44575f80fd5b60209290920196919550909350505050565b602080825282518282018190525f9190848201906040850190845b81811015615a8d57835183529284019291840191600101615a71565b50909695505050505050565b5f8060408385031215615aaa575f80fd5b8235615ab5816154bd565b91506020830135615ac5816154bd565b809150509250929050565b5f805f80848603610120811215615ae5575f80fd5b615aef8787615647565b945060607fffffffffffffffffffffffffffffffffffffffffffffffffffffffffffffff6082011215615b20575f80fd5b506040516060810167ffffffffffffffff8282108183111715615b4557615b456155ce565b81604052615b5560a089016158a5565b835260c0880135602084015260e08801359150615b71826154bd565b816040840152829550610100880135925080831115615b8e575f80fd5b5050615993878288016156dd565b5f805f8060808587031215615baf575f80fd5b8435615bba816154bd565b93506020850135615bca816154bd565b93969395505050506040820135916060013590565b7f4e487b71000000000000000000000000000000000000000000000000000000005f52601160045260245ffd5b8181038181111561076757610767615bdf565b8082018082111561076757610767615bdf565b81835281816020850137505f602082840101525f60207fffffffffffffffffffffffffffffffffffffffffffffffffffffffffffffffe0601f840116840101905092915050565b602081525f611b28602083018486615c32565b5f60208284031215615c9c575f80fd5b815167ffffffffffffffff80821115615cb3575f80fd5b818401915084601f830112615cc6575f80fd5b815181811115615cd857615cd86155ce565b604051601f82017fffffffffffffffffffffffffffffffffffffffffffffffffffffffffffffffe0908116603f01168101908382118183101715615d1e57615d1e6155ce565b81604052828152876020848701011115615d36575f80fd5b614be08360208301602088016157c2565b8082018281125f831280158216821582161715615d6657615d66615bdf565b505092915050565b5f61012073ffffffffffffffffffffffffffffffffffffffff89168352615de7602084018973ffffffffffffffffffffffffffffffffffffffff80825116835280602083015116602084015262ffffff6040830151166040840152606082015160020b6060840152806080830151166080840152505050565b8660c08401528560e0840152806101008401526141158184018587615c32565b5f61016073ffffffffffffffffffffffffffffffffffffffff88168352615e80602084018873ffffffffffffffffffffffffffffffffffffffff80825116835280602083015116602084015262ffffff6040830151166040840152606082015160020b6060840152806080830151166080840152505050565b8551600290810b60c08501526020870151900b60e08401526040860151610100840152606086015161012084015280610140840152615ec28184018587615c32565b98975050505050505050565b5f61018073ffffffffffffffffffffffffffffffffffffffff89168352615f47602084018973ffffffffffffffffffffffffffffffffffffffff80825116835280602083015116602084015262ffffff6040830151166040840152606082015160020b6060840152806080830151166080840152505050565b8651600290810b60c08501526020880151900b60e08401526040870151610100840152606087015161012084015285610140840152806101608401526141158184018587615c32565b5f61010073ffffffffffffffffffffffffffffffffffffffff808916845261600a602085018973ffffffffffffffffffffffffffffffffffffffff80825116835280602083015116602084015262ffffff6040830151166040840152606082015160020b6060840152806080830151166080840152505050565b861660c084015260e08301819052615ec28184018587615c32565b60a08101610767828473ffffffffffffffffffffffffffffffffffffffff80825116835280602083015116602084015262ffffff6040830151166040840152606082015160020b6060840152806080830151166080840152505050565b5f82516160938184602087016157c2565b9190910192915050565b5f61012073ffffffffffffffffffffffffffffffffffffffff808a168452616117602085018a73ffffffffffffffffffffffffffffffffffffffff80825116835280602083015116602084015262ffffff6040830151166040840152606082015160020b6060840152806080830151166080840152505050565b80881660c0850152508560020b60e0840152806101008401526141158184018587615c32565b5f6020828403121561614d575f80fd5b5051919050565b5f61014073ffffffffffffffffffffffffffffffffffffffff881683526161cd602084018873ffffffffffffffffffffffffffffffffffffffff80825116835280602083015116602084015262ffffff6040830151166040840152606082015160020b6060840152806080830151166080840152505050565b8551151560c0840152602086015160e0840152604086015173ffffffffffffffffffffffffffffffffffffffff1661010084015280610120840152615ec28184018587615c32565b5f61016073ffffffffffffffffffffffffffffffffffffffff8916835261628e602084018973ffffffffffffffffffffffffffffffffffffffff80825116835280602083015116602084015262ffffff6040830151166040840152606082015160020b6060840152806080830151166080840152505050565b8651151560c0840152602087015160e0840152604087015173ffffffffffffffffffffffffffffffffffffffff1661010084015285610120840152806101408401526141158184018587615c32565b600f81810b9083900b016f7fffffffffffffffffffffffffffffff81137fffffffffffffffffffffffffffffffff800000000000000000000000000000008212171561076757610767615bdf565b600f82810b9082900b037fffffffffffffffffffffffffffffffff8000000000000000000000000000000081126f7fffffffffffffffffffffffffffffff8213171561076757610767615bdf565b8181035f83128015838313168383128216171561639857616398615bdf565b5092915050565b7f4e487b71000000000000000000000000000000000000000000000000000000005f52601260045260245ffd5b5f826163ff577f4e487b71000000000000000000000000000000000000000000000000000000005f52601260045260245ffd5b50049056fea164736f6c6343000818000a","linkReferences":{}},"methodIdentifiers":{"MAX_TICK_SPACING()":"60460f06","MIN_TICK_SPACING()":"07eff0dd","allowance(address,address,uint256)":"598af9e7","approve(address,uint256,uint256)":"426a8493","balanceOf(address,uint256)":"00fdd58e","burn(address,uint256,uint256)":"f5298aca","collectProtocolFees(address,address,uint256)":"8161b874","donate((address,address,uint24,int24,address),uint256,uint256,bytes)":"234266d7","extsload(bytes32)":"1e2eaeaf","extsload(bytes32,uint256)":"35fd631a","extsload(bytes32[])":"dbd035ff","exttload(bytes32)":"f135baaa","exttload(bytes32[])":"9bf6645f","initialize((address,address,uint24,int24,address),uint160,bytes)":"695c5bf5","isOperator(address,address)":"b6363cf2","mint(address,uint256,uint256)":"156e29f6","modifyLiquidity((address,address,uint24,int24,address),(int24,int24,int256,bytes32),bytes)":"5a6bcfda","owner()":"8da5cb5b","protocolFeeController()":"f02de3b2","protocolFeesAccrued(address)":"97e8cd4e","setOperator(address,bool)":"558a7297","setProtocolFee((address,address,uint24,int24,address),uint24)":"7e87ce7d","setProtocolFeeController(address)":"2d771389","settle(address)":"6a256b29","supportsInterface(bytes4)":"01ffc9a7","swap((address,address,uint24,int24,address),(bool,int256,uint160),bytes)":"f3cd914c","sync(address)":"a5841194","take(address,address,uint256)":"0b0d9c09","transfer(address,uint256,uint256)":"095bcdb6","transferFrom(address,address,uint256,uint256)":"fe99049a","transferOwnership(address)":"f2fde38b","unlock(bytes)":"48c89491","updateDynamicLPFee((address,address,uint24,int24,address),uint24)":"52759651"},"id":40}