{"abi":[{"type":"constructor","inputs":[{"name":"angstrom","type":"address","internalType":"address"},{"name":"uniV4","type":"address","internalType":"address"}],"stateMutability":"nonpayable"},{"type":"function","name":"execute","inputs":[{"name":"data","type":"bytes","internalType":"bytes"}],"outputs":[],"stateMutability":"nonpayable"},{"type":"function","name":"initializePool","inputs":[{"name":"asset0","type":"address","internalType":"address"},{"name":"asset1","type":"address","internalType":"address"},{"name":"initialSqrtPriceX96","type":"uint160","internalType":"uint160"}],"outputs":[],"stateMutability":"nonpayable"},{"type":"function","name":"isInitialized","inputs":[{"name":"asset0","type":"address","internalType":"address"},{"name":"asset1","type":"address","internalType":"address"}],"outputs":[{"name":"","type":"bool","internalType":"bool"}],"stateMutability":"view"},{"type":"function","name":"modifyLiquidity","inputs":[{"name":"asset0","type":"address","internalType":"address"},{"name":"asset1","type":"address","internalType":"address"},{"name":"tickLower","type":"int24","internalType":"int24"},{"name":"tickUpper","type":"int24","internalType":"int24"},{"name":"liquidityDelta","type":"int256","internalType":"int256"}],"outputs":[],"stateMutability":"nonpayable"},{"type":"function","name":"unlockCallback","inputs":[{"name":"data","type":"bytes","internalType":"bytes"}],"outputs":[{"name":"","type":"bytes","internalType":"bytes"}],"stateMutability":"nonpayable"},{"type":"error","name":"CallFailed","inputs":[{"name":"","type":"bytes","internalType":"bytes"}]}],"bytecode":{"object":"0x60c060405234801561000f575f80fd5b506040516110f23803806110f283398101604081905261002e91610060565b6001600160a01b039081166080521660a052610091565b80516001600160a01b038116811461005b575f80fd5b919050565b5f8060408385031215610071575f80fd5b61007a83610045565b915061008860208401610045565b90509250929050565b60805160a0516110086100ea5f395f81816101e001528181610362015261049401525f8181610128015281816102b1015281816103b10152818161050a0152818161085d0152818161097f01526109e701526110085ff3fe608060405234801561000f575f80fd5b5060043610610064575f3560e01c806347ddb81f1161004d57806347ddb81f146100a55780637470c1a5146100b857806391dd7346146100cb575f80fd5b806309c5eabe1461006857806330315f621461007d575b5f80fd5b61007b610076366004610ad0565b6100eb565b005b61009061008b366004610b60565b6101c4565b60405190151581526020015b60405180910390f35b61007b6100b3366004610b97565b6102f8565b61007b6100c6366004610bed565b610431565b6100de6100d9366004610ad0565b6106ea565b60405161009c9190610c6f565b6040517f48c8949100000000000000000000000000000000000000000000000000000000815273ffffffffffffffffffffffffffffffffffffffff7f000000000000000000000000000000000000000000000000000000000000000016906348c894919061015f9085908590600401610cbf565b5f604051808303815f875af115801561017a573d5f803e3d5ffd5b505050506040513d5f823e601f3d9081017fffffffffffffffffffffffffffffffffffffffffffffffffffffffffffffffe01682016040526101bf9190810190610d38565b505050565b5f8061028973ffffffffffffffffffffffffffffffffffffffff7f00000000000000000000000000000000000000000000000000000000000000001685856040805160a080820183525f80835260208301819052828401819052606083018190526080830152825190810190925290808473ffffffffffffffffffffffffffffffffffffffff1681526020018373ffffffffffffffffffffffffffffffffffffffff90811682525f6020830152603c6040830152861660609091015290509392505050565b90505f6102d761029a8360a0902090565b73ffffffffffffffffffffffffffffffffffffffff7f000000000000000000000000000000000000000000000000000000000000000016906107a8565b73ffffffffffffffffffffffffffffffffffffffff16151595945050505050565b6040805160a080820183525f8083526020808401829052838501829052606080850183905260809485018390528551938401865273ffffffffffffffffffffffffffffffffffffffff89811685528881169285019290925283860192909252603c918301919091527f000000000000000000000000000000000000000000000000000000000000000081169282019290925291517f695c5bf50000000000000000000000000000000000000000000000000000000081527f00000000000000000000000000000000000000000000000000000000000000009091169063695c5bf5906103ea9084908690600401610dfe565b6020604051808303815f875af1158015610406573d5f803e3d5ffd5b505050506040513d601f19601f8201168201806040525081019061042a9190610e8c565b5050505050565b6040805160a080820183525f8083526020808401829052838501829052606080850183905260809485018390528551938401865273ffffffffffffffffffffffffffffffffffffffff8b811685528a811685840152848701849052603c858301527f000000000000000000000000000000000000000000000000000000000000000081168587015286519586018752908501839052600289810b865288900b9185019190915283850186905293517f5a6bcfda0000000000000000000000000000000000000000000000000000000081529193909182917f00000000000000000000000000000000000000000000000000000000000000001690635a6bcfda906105419087908790600401610eae565b60408051808303815f875af115801561055c573d5f803e3d5ffd5b505050506040513d601f19601f820116820180604052508101906105809190610f52565b9150915061058e8160801d90565b600f0b1580156105a857506105a381600f0b90565b600f0b155b610613576040517f08c379a000000000000000000000000000000000000000000000000000000000815260206004820152600d60248201527f47657474696e6720666565733f0000000000000000000000000000000000000060448201526064015b60405180910390fd5b5f61061e8360801d90565b600f0b1315801561063b57505f61063583600f0b90565b600f0b13155b6106a1576040517f08c379a000000000000000000000000000000000000000000000000000000000815260206004820152601b60248201527f526563656976696e67206d6f6e657920666f72204c5027696e673f0000000000604482015260640161060a565b6106d1896106af8460801d90565b6106b890610f74565b6fffffffffffffffffffffffffffffffff16600161084f565b6106df886106af84600f0b90565b505050505050505050565b60605f803073ffffffffffffffffffffffffffffffffffffffff168585604051610715929190610fd5565b5f604051808303815f865af19150503d805f811461074e576040519150601f19603f3d011682016040523d82523d5f602084013e610753565b606091505b50915091508161079157806040517fa5fa8d2b00000000000000000000000000000000000000000000000000000000815260040161060a9190610c6f565b505060408051602081019091525f81529392505050565b5f81815260066020526040812081906040517f1e2eaeaf0000000000000000000000000000000000000000000000000000000081526004810182905290915073ffffffffffffffffffffffffffffffffffffffff851690631e2eaeaf90602401602060405180830381865afa158015610823573d5f803e3d5ffd5b505050506040513d601f19601f820116820180604052508101906108479190610fe4565b949350505050565b81156101bf578015610942577f000000000000000000000000000000000000000000000000000000000000000073ffffffffffffffffffffffffffffffffffffffff1663a58411946108b48573ffffffffffffffffffffffffffffffffffffffff1690565b6040517fffffffff0000000000000000000000000000000000000000000000000000000060e084901b16815273ffffffffffffffffffffffffffffffffffffffff90911660048201526024016020604051808303815f875af115801561091c573d5f803e3d5ffd5b505050506040513d601f19601f820116820180604052508101906109409190610fe4565b505b6040517f40c10f1900000000000000000000000000000000000000000000000000000000815273ffffffffffffffffffffffffffffffffffffffff7f000000000000000000000000000000000000000000000000000000000000000081166004830152602482018490528416906340c10f19906044015f604051808303815f87803b1580156109cf575f80fd5b505af11580156109e1573d5f803e3d5ffd5b505050507f000000000000000000000000000000000000000000000000000000000000000073ffffffffffffffffffffffffffffffffffffffff16636a256b29610a3e8573ffffffffffffffffffffffffffffffffffffffff1690565b6040517fffffffff0000000000000000000000000000000000000000000000000000000060e084901b16815273ffffffffffffffffffffffffffffffffffffffff90911660048201526024016020604051808303815f875af1158015610aa6573d5f803e3d5ffd5b505050506040513d601f19601f82011682018060405250810190610aca9190610fe4565b50505050565b5f8060208385031215610ae1575f80fd5b823567ffffffffffffffff80821115610af8575f80fd5b818501915085601f830112610b0b575f80fd5b813581811115610b19575f80fd5b866020828501011115610b2a575f80fd5b60209290920196919550909350505050565b73ffffffffffffffffffffffffffffffffffffffff81168114610b5d575f80fd5b50565b5f8060408385031215610b71575f80fd5b8235610b7c81610b3c565b91506020830135610b8c81610b3c565b809150509250929050565b5f805f60608486031215610ba9575f80fd5b8335610bb481610b3c565b92506020840135610bc481610b3c565b91506040840135610bd481610b3c565b809150509250925092565b8060020b8114610b5d575f80fd5b5f805f805f60a08688031215610c01575f80fd5b8535610c0c81610b3c565b94506020860135610c1c81610b3c565b93506040860135610c2c81610bdf565b92506060860135610c3c81610bdf565b949793965091946080013592915050565b5f5b83811015610c67578181015183820152602001610c4f565b50505f910152565b602081525f8251806020840152610c8d816040850160208701610c4d565b601f017fffffffffffffffffffffffffffffffffffffffffffffffffffffffffffffffe0169190910160400192915050565b60208152816020820152818360408301375f818301604090810191909152601f9092017fffffffffffffffffffffffffffffffffffffffffffffffffffffffffffffffe0160101919050565b7f4e487b71000000000000000000000000000000000000000000000000000000005f52604160045260245ffd5b5f60208284031215610d48575f80fd5b815167ffffffffffffffff80821115610d5f575f80fd5b818401915084601f830112610d72575f80fd5b815181811115610d8457610d84610d0b565b604051601f82017fffffffffffffffffffffffffffffffffffffffffffffffffffffffffffffffe0908116603f01168101908382118183101715610dca57610dca610d0b565b81604052828152876020848701011115610de2575f80fd5b610df3836020830160208801610c4d565b979650505050505050565b610e57818473ffffffffffffffffffffffffffffffffffffffff80825116835280602083015116602084015262ffffff6040830151166040840152606082015160020b6060840152806080830151166080840152505050565b73ffffffffffffffffffffffffffffffffffffffff9190911660a082015260e060c082018190525f9082015261010001919050565b5f60208284031215610e9c575f80fd5b8151610ea781610bdf565b9392505050565b5f610140610f0b838673ffffffffffffffffffffffffffffffffffffffff80825116835280602083015116602084015262ffffff6040830151166040840152606082015160020b6060840152806080830151166080840152505050565b835160020b60a0840152602084015160020b60c0840152604084015160e08401526060840151610100840152806101208401525f8184015250610160820190509392505050565b5f8060408385031215610f63575f80fd5b505080516020909101519092909150565b5f81600f0b7fffffffffffffffffffffffffffffffff800000000000000000000000000000008103610fcd577f4e487b71000000000000000000000000000000000000000000000000000000005f52601160045260245ffd5b5f0392915050565b818382375f9101908152919050565b5f60208284031215610ff4575f80fd5b505191905056fea164736f6c6343000818000a","linkReferences":{}},"methodIdentifiers":{"execute(bytes)":"09c5eabe","initializePool(address,address,uint160)":"47ddb81f","isInitialized(address,address)":"30315f62","modifyLiquidity(address,address,int24,int24,int256)":"7470c1a5","unlockCallback(bytes)":"91dd7346"},"id":89}