{"abi":[{"type":"constructor","inputs":[{"name":"uniV4PoolManager","type":"address","internalType":"address"},{"name":"governance","type":"address","internalType":"address"}],"stateMutability":"nonpayable"},{"type":"function","name":"allUniV4FreeToUniV4Delta","inputs":[{"name":"asset","type":"address","internalType":"address"}],"outputs":[],"stateMutability":"nonpayable"},{"type":"function","name":"allowance","inputs":[{"name":"owner","type":"address","internalType":"address"},{"name":"spender","type":"address","internalType":"address"},{"name":"id","type":"uint256","internalType":"uint256"}],"outputs":[{"name":"allowed","type":"uint256","internalType":"uint256"}],"stateMutability":"view"},{"type":"function","name":"approve","inputs":[{"name":"spender","type":"address","internalType":"address"},{"name":"id","type":"uint256","internalType":"uint256"},{"name":"amount","type":"uint256","internalType":"uint256"}],"outputs":[{"name":"","type":"bool","internalType":"bool"}],"stateMutability":"nonpayable"},{"type":"function","name":"balanceOf","inputs":[{"name":"owner","type":"address","internalType":"address"},{"name":"id","type":"uint256","internalType":"uint256"}],"outputs":[{"name":"balance","type":"uint256","internalType":"uint256"}],"stateMutability":"view"},{"type":"function","name":"burnV4","inputs":[{"name":"from","type":"address","internalType":"address"},{"name":"asset","type":"address","internalType":"address"},{"name":"amount","type":"uint256","internalType":"uint256"}],"outputs":[],"stateMutability":"nonpayable"},{"type":"function","name":"eip712Domain","inputs":[],"outputs":[{"name":"fields","type":"bytes1","internalType":"bytes1"},{"name":"name","type":"string","internalType":"string"},{"name":"version","type":"string","internalType":"string"},{"name":"chainId","type":"uint256","internalType":"uint256"},{"name":"verifyingContract","type":"address","internalType":"address"},{"name":"salt","type":"bytes32","internalType":"bytes32"},{"name":"extensions","type":"uint256[]","internalType":"uint256[]"}],"stateMutability":"view"},{"type":"function","name":"execute","inputs":[{"name":"data","type":"bytes","internalType":"bytes"}],"outputs":[],"stateMutability":"nonpayable"},{"type":"function","name":"freeToUniV4Free","inputs":[{"name":"asset","type":"address","internalType":"address"},{"name":"amount","type":"uint256","internalType":"uint256"}],"outputs":[],"stateMutability":"nonpayable"},{"type":"function","name":"halfSpreadRay","inputs":[],"outputs":[{"name":"","type":"uint256","internalType":"uint256"}],"stateMutability":"view"},{"type":"function","name":"hashTyped","inputs":[{"name":"structHash","type":"bytes32","internalType":"bytes32"}],"outputs":[{"name":"","type":"bytes32","internalType":"bytes32"}],"stateMutability":"view"},{"type":"function","name":"isOperator","inputs":[{"name":"owner","type":"address","internalType":"address"},{"name":"spender","type":"address","internalType":"address"}],"outputs":[{"name":"operator","type":"bool","internalType":"bool"}],"stateMutability":"view"},{"type":"function","name":"lastBlockUpdated","inputs":[],"outputs":[{"name":"","type":"uint256","internalType":"uint256"}],"stateMutability":"view"},{"type":"function","name":"mintV4","inputs":[{"name":"to","type":"address","internalType":"address"},{"name":"asset","type":"address","internalType":"address"},{"name":"amount","type":"uint256","internalType":"uint256"}],"outputs":[],"stateMutability":"nonpayable"},{"type":"function","name":"pullLiquid","inputs":[{"name":"from","type":"address","internalType":"address"},{"name":"asset","type":"address","internalType":"address"},{"name":"amount","type":"uint256","internalType":"uint256"}],"outputs":[],"stateMutability":"nonpayable"},{"type":"function","name":"pullToV4","inputs":[{"name":"from","type":"address","internalType":"address"},{"name":"asset","type":"address","internalType":"address"},{"name":"amount","type":"uint256","internalType":"uint256"}],"outputs":[],"stateMutability":"nonpayable"},{"type":"function","name":"pushFromV4","inputs":[{"name":"to","type":"address","internalType":"address"},{"name":"asset","type":"address","internalType":"address"},{"name":"amount","type":"uint256","internalType":"uint256"}],"outputs":[],"stateMutability":"nonpayable"},{"type":"function","name":"pushLiquid","inputs":[{"name":"to","type":"address","internalType":"address"},{"name":"asset","type":"address","internalType":"address"},{"name":"amount","type":"uint256","internalType":"uint256"}],"outputs":[],"stateMutability":"nonpayable"},{"type":"function","name":"saveNodeFee","inputs":[{"name":"asset","type":"address","internalType":"address"},{"name":"amount","type":"uint256","internalType":"uint256"}],"outputs":[],"stateMutability":"nonpayable"},{"type":"function","name":"setOperator","inputs":[{"name":"spender","type":"address","internalType":"address"},{"name":"approved","type":"bool","internalType":"bool"}],"outputs":[{"name":"","type":"bool","internalType":"bool"}],"stateMutability":"nonpayable"},{"type":"function","name":"supportsInterface","inputs":[{"name":"interfaceId","type":"bytes4","internalType":"bytes4"}],"outputs":[{"name":"supported","type":"bool","internalType":"bool"}],"stateMutability":"pure"},{"type":"function","name":"transfer","inputs":[{"name":"receiver","type":"address","internalType":"address"},{"name":"id","type":"uint256","internalType":"uint256"},{"name":"amount","type":"uint256","internalType":"uint256"}],"outputs":[{"name":"","type":"bool","internalType":"bool"}],"stateMutability":"nonpayable"},{"type":"function","name":"transferFrom","inputs":[{"name":"sender","type":"address","internalType":"address"},{"name":"receiver","type":"address","internalType":"address"},{"name":"id","type":"uint256","internalType":"uint256"},{"name":"amount","type":"uint256","internalType":"uint256"}],"outputs":[{"name":"","type":"bool","internalType":"bool"}],"stateMutability":"nonpayable"},{"type":"function","name":"uniV4DeltaToFree","inputs":[{"name":"asset","type":"address","internalType":"address"},{"name":"amount","type":"uint256","internalType":"uint256"}],"outputs":[],"stateMutability":"nonpayable"},{"type":"function","name":"unlockCallback","inputs":[{"name":"data","type":"bytes","internalType":"bytes"}],"outputs":[{"name":"","type":"bytes","internalType":"bytes"}],"stateMutability":"nonpayable"},{"type":"function","name":"updateNodes","inputs":[{"name":"nodes","type":"address[]","internalType":"address[]"}],"outputs":[],"stateMutability":"nonpayable"},{"type":"function","name":"userToUserLiquidTransfer","inputs":[{"name":"from","type":"address","internalType":"address"},{"name":"to","type":"address","internalType":"address"},{"name":"asset","type":"address","internalType":"address"},{"name":"amount","type":"uint256","internalType":"uint256"}],"outputs":[],"stateMutability":"nonpayable"},{"type":"function","name":"userToUserV4ClaimTransfer","inputs":[{"name":"from","type":"address","internalType":"address"},{"name":"to","type":"address","internalType":"address"},{"name":"asset","type":"address","internalType":"address"},{"name":"amount","type":"uint256","internalType":"uint256"}],"outputs":[],"stateMutability":"nonpayable"},{"type":"error","name":"AboveMaxWidth","inputs":[]},{"type":"error","name":"AssetsOutOfOrder","inputs":[]},{"type":"error","name":"Expired","inputs":[]},{"type":"error","name":"FillingTooMuch","inputs":[]},{"type":"error","name":"InsufficientBalance","inputs":[]},{"type":"error","name":"InsufficientPermission","inputs":[]},{"type":"error","name":"InvalidHookReturn","inputs":[]},{"type":"error","name":"InvalidIndices","inputs":[{"name":"outOfOrder","type":"bool","internalType":"bool"},{"name":"outOfBounds","type":"bool","internalType":"bool"},{"name":"i","type":"uint16","internalType":"AssetIndex"},{"name":"j","type":"uint16","internalType":"AssetIndex"}]},{"type":"error","name":"InvalidSignature","inputs":[]},{"type":"error","name":"LimitViolated","inputs":[]},{"type":"error","name":"NonceReuse","inputs":[]},{"type":"error","name":"NotGovernance","inputs":[]},{"type":"error","name":"NotNode","inputs":[]},{"type":"error","name":"NotThis","inputs":[]},{"type":"error","name":"NotUniswap","inputs":[]},{"type":"error","name":"OnlyOncePerBlock","inputs":[]},{"type":"error","name":"OrderAlreadyExecuted","inputs":[]},{"type":"error","name":"Overflow","inputs":[]},{"type":"error","name":"Unresolved","inputs":[]}],"bytecode":{"object":"0x61016060405234801562000011575f80fd5b506040516200506638038062005066833981016040819052620000349162000126565b6001600160a01b0382166080523060a0524660c0528181806060806200008e6040805180820182526008815267416e677374726f6d60c01b60208083019190915282518084019093526002835261763160f01b9083015291565b815160209283012081519183019190912060e0829052610100819052604080517f8b73c3c69bb8fe3d512ecc4cf759cc79239f7b179b0ffacaa9a75d522b39400f8152938401929092529082015246606082015230608082015260a090206101205250506001600160a01b031661014052506200015c92505050565b80516001600160a01b038116811462000121575f80fd5b919050565b5f806040838503121562000138575f80fd5b62000143836200010a565b915062000153602084016200010a565b90509250929050565b60805160a05160c05160e051610100516101205161014051614e486200021e5f395f610e6501525f6127a001525f61285a01525f61283401525f6127e401525f6127c101525f81816104f9015281816107540152818161082b01528181610ac701528181610b9801528181610cc801528181610da3015281816111520152818161127c01528181611357015281816114bc015281816122c6015281816123c40152818161247a015281816124e80152818161260201526126600152614e485ff3fe608060405234801561000f575f80fd5b50600436106101af575f3560e01c806384b0196e116100f3578063b6363cf211610093578063d6910df91161006e578063d6910df914610472578063dc32367114610485578063e22dfb8214610498578063fe99049a146104ab575f80fd5b8063b6363cf21461041f578063c09993901461044c578063c8436c001461045f575f80fd5b806397125bee116100ce57806397125bee146103dd5780639bb0094c146103e6578063ae489985146103f9578063af2c08681461040c575f80fd5b806384b0196e1461038f57806391dd7346146103aa578063924ca5e1146103ca575f80fd5b8063426a84931161015e5780636a3ad7e2116101395780636a3ad7e21461034d5780636bc7bbc314610360578063701ff61214610373578063760f5f2714610386575f80fd5b8063426a84931461025e578063558a7297146102ae578063598af9e71461031d575f80fd5b8063095bcdb61161018e578063095bcdb61461022557806309c5eabe146102385780631845bfa61461024b575f80fd5b8062fdd58e146101b357806301cbb715146101ed57806301ffc9a714610202575b5f80fd5b6101da6101c1366004613986565b5f60208181529281526040808220909352908152205481565b6040519081526020015b60405180910390f35b6102006101fb3660046139ae565b6104be565b005b6102156102103660046139e7565b61061f565b60405190151581526020016101e4565b610215610233366004613a26565b6106b7565b610200610246366004613a56565b6106cf565b610200610259366004613ac2565b6107f0565b61021561026c366004613a26565b335f90815260016020818152604080842073ffffffffffffffffffffffffffffffffffffffff8816855282528084208685529091529091208290559392505050565b6102156102bc366004613b1a565b335f90815260026020908152604080832073ffffffffffffffffffffffffffffffffffffffff86168452909152902080547fffffffffffffffffffffffffffffffffffffffffffffffffffffffffffffff0016821515179055600192915050565b6101da61032b3660046139ae565b600160209081525f938452604080852082529284528284209052825290205481565b61020061035b3660046139ae565b6109aa565b61020061036e366004613986565b610a72565b610200610381366004613b4f565b610b1a565b6101da600b5481565b610397610c06565b6040516101e49796959493929190613bd3565b6103bd6103b8366004613a56565b610cae565b6040516101e49190613c93565b6102006103d8366004613ca5565b610e4d565b6101da600c5481565b6102006103f4366004613986565b610f48565b610200610407366004613ac2565b610fed565b61020061041a3660046139ae565b6110c5565b61021561042d366004613d02565b600260209081525f928352604080842090915290825290205460ff1681565b6101da61045a366004613d33565b6111e7565b61020061046d366004613986565b6111f1565b6102006104803660046139ae565b611301565b6102006104933660046139ae565b6113ba565b6102006104a63660046139ae565b611481565b6102156104b9366004613d4a565b6115d7565b3330146104f7576040517f2a49be6400000000000000000000000000000000000000000000000000000000815260040160405180910390fd5b7f000000000000000000000000000000000000000000000000000000000000000073ffffffffffffffffffffffffffffffffffffffff1663f5298aca846105518573ffffffffffffffffffffffffffffffffffffffff1690565b6040517fffffffff0000000000000000000000000000000000000000000000000000000060e085901b16815273ffffffffffffffffffffffffffffffffffffffff90921660048301526024820152604481018490526064015f604051808303815f87803b1580156105c0575f80fd5b505af11580156105d2573d5f803e3d5ffd5b50505073ffffffffffffffffffffffffffffffffffffffff8085165f9081526007602090815260408083209387168352929052206106199150610614836116b5565b611713565b50505050565b5f7f0f632fb3000000000000000000000000000000000000000000000000000000007fffffffff00000000000000000000000000000000000000000000000000000000831614806106b157507f01ffc9a7000000000000000000000000000000000000000000000000000000007fffffffff000000000000000000000000000000000000000000000000000000008316145b92915050565b5f6106c433858585611758565b5060015b9392505050565b335f908152600a602052604090205460ff16610717576040517f5cd26b6800000000000000000000000000000000000000000000000000000000815260040160405180910390fd5b6040517f48c8949100000000000000000000000000000000000000000000000000000000815273ffffffffffffffffffffffffffffffffffffffff7f000000000000000000000000000000000000000000000000000000000000000016906348c894919061078b9085908590600401613d89565b5f604051808303815f875af11580156107a6573d5f803e3d5ffd5b505050506040513d5f823e601f3d9081017fffffffffffffffffffffffffffffffffffffffffffffffffffffffffffffffe01682016040526107eb9190810190613f4d565b505050565b333014610829576040517f2a49be6400000000000000000000000000000000000000000000000000000000815260040160405180910390fd5b7f000000000000000000000000000000000000000000000000000000000000000073ffffffffffffffffffffffffffffffffffffffff1663fe99049a85856108848673ffffffffffffffffffffffffffffffffffffffff1690565b6040517fffffffff0000000000000000000000000000000000000000000000000000000060e086901b16815273ffffffffffffffffffffffffffffffffffffffff93841660048201529290911660248301526044820152606481018490526084016020604051808303815f875af1158015610901573d5f803e3d5ffd5b505050506040513d601f19601f820116820180604052508101906109259190613fbb565b5073ffffffffffffffffffffffffffffffffffffffff8085165f90815260076020908152604080832093861683529290522061096490610614836116b5565b5073ffffffffffffffffffffffffffffffffffffffff8084165f9081526007602090815260408083209386168352929052206109a3906106148361176e565b5050505050565b3330146109e3576040517f2a49be6400000000000000000000000000000000000000000000000000000000815260040160405180910390fd5b610a0573ffffffffffffffffffffffffffffffffffffffff83168430846117cf565b73ffffffffffffffffffffffffffffffffffffffff8084165f908152600660209081526040808320938616835292905220610a4390610614836116b5565b5073ffffffffffffffffffffffffffffffffffffffff82165f9081526009602052604090206106199082611827565b333014610aab576040517f2a49be6400000000000000000000000000000000000000000000000000000000815260040160405180910390fd5b610aec73ffffffffffffffffffffffffffffffffffffffff83167f00000000000000000000000000000000000000000000000000000000000000008361183f565b73ffffffffffffffffffffffffffffffffffffffff82165f9081526009602052604090206107eb9082611888565b333014610b53576040517f2a49be6400000000000000000000000000000000000000000000000000000000815260040160405180910390fd5b6040517f6a256b2900000000000000000000000000000000000000000000000000000000815273ffffffffffffffffffffffffffffffffffffffff82811660048301527f00000000000000000000000000000000000000000000000000000000000000001690636a256b29906024016020604051808303815f875af1158015610bde573d5f803e3d5ffd5b505050506040513d601f19601f82011682018060405250810190610c029190613fd6565b5050565b7f0f000000000000000000000000000000000000000000000000000000000000006060805f808083610c9c604080518082018252600881527f416e677374726f6d0000000000000000000000000000000000000000000000006020808301919091528251808401909352600283527f76310000000000000000000000000000000000000000000000000000000000009083015291565b97989097965046955030945091925090565b60603373ffffffffffffffffffffffffffffffffffffffff7f00000000000000000000000000000000000000000000000000000000000000001614610d1f576040517ff832861400000000000000000000000000000000000000000000000000000000815260040160405180910390fd5b5f80808080808080610d338a8c018c6147d8565b975097509750975097509750975097505f610d4e8989611897565b9050610d5a8188611a26565b610d648187611ac4565b610d6e8185611d18565b610d788184611a26565b5f5b8551811015610def57610de7868281518110610d9857610d9861490b565b6020026020010151837f000000000000000000000000000000000000000000000000000000000000000073ffffffffffffffffffffffffffffffffffffffff1661204d9092919063ffffffff16565b600101610d7a565b505f5b8251811015610e2657610e1e82848381518110610e1157610e1161490b565b60200260200101516121e3565b600101610df2565b50610e2f612762565b5050604080515f8152602081019091529a9950505050505050505050565b3373ffffffffffffffffffffffffffffffffffffffff7f00000000000000000000000000000000000000000000000000000000000000001614610ebc576040517fb56f932c00000000000000000000000000000000000000000000000000000000815260040160405180910390fd5b5f5b818110156107eb575f838383818110610ed957610ed961490b565b9050602002016020810190610eee9190613b4f565b73ffffffffffffffffffffffffffffffffffffffff165f908152600a6020526040902080547fffffffffffffffffffffffffffffffffffffffffffffffffffffffffffffff00811660ff9091161517905550600101610ebe565b333014610f81576040517f2a49be6400000000000000000000000000000000000000000000000000000000815260040160405180910390fd5b73ffffffffffffffffffffffffffffffffffffffff82165f908152600960205260409020610faf9082611888565b5073ffffffffffffffffffffffffffffffffffffffff82165f9081526003602052604081208054839290610fe4908490614965565b90915550505050565b333014611026576040517f2a49be6400000000000000000000000000000000000000000000000000000000815260040160405180910390fd5b61104873ffffffffffffffffffffffffffffffffffffffff83168585846117cf565b73ffffffffffffffffffffffffffffffffffffffff8085165f90815260066020908152604080832093861683529290522061108690610614836116b5565b5073ffffffffffffffffffffffffffffffffffffffff8084165f9081526006602090815260408083209386168352929052206109a3906106148361176e565b3330146110fe576040517f2a49be6400000000000000000000000000000000000000000000000000000000815260040160405180910390fd5b6040517f0b0d9c0900000000000000000000000000000000000000000000000000000000815273ffffffffffffffffffffffffffffffffffffffff83811660048301528481166024830152604482018390527f00000000000000000000000000000000000000000000000000000000000000001690630b0d9c09906064015f604051808303815f87803b158015611193575f80fd5b505af11580156111a5573d5f803e3d5ffd5b50505073ffffffffffffffffffffffffffffffffffffffff8085165f90815260066020908152604080832093871683529290522061061991506106148361176e565b5f6106b18261279e565b33301461122a576040517f2a49be6400000000000000000000000000000000000000000000000000000000815260040160405180910390fd5b6040517f0b0d9c0900000000000000000000000000000000000000000000000000000000815273ffffffffffffffffffffffffffffffffffffffff8381166004830152306024830152604482018390527f00000000000000000000000000000000000000000000000000000000000000001690630b0d9c09906064015f604051808303815f87803b1580156112bd575f80fd5b505af11580156112cf573d5f803e3d5ffd5b50505073ffffffffffffffffffffffffffffffffffffffff83165f9081526009602052604090206107eb915082611827565b33301461133a576040517f2a49be6400000000000000000000000000000000000000000000000000000000815260040160405180910390fd5b61137c73ffffffffffffffffffffffffffffffffffffffff8316847f0000000000000000000000000000000000000000000000000000000000000000846117cf565b73ffffffffffffffffffffffffffffffffffffffff8084165f90815260066020908152604080832093861683529290522061061990610614836116b5565b3330146113f3576040517f2a49be6400000000000000000000000000000000000000000000000000000000815260040160405180910390fd5b61141473ffffffffffffffffffffffffffffffffffffffff8316848361183f565b73ffffffffffffffffffffffffffffffffffffffff8084165f908152600660209081526040808320938616835292905220611452906106148361176e565b5073ffffffffffffffffffffffffffffffffffffffff82165f9081526009602052604090206106199082611888565b3330146114ba576040517f2a49be6400000000000000000000000000000000000000000000000000000000815260040160405180910390fd5b7f000000000000000000000000000000000000000000000000000000000000000073ffffffffffffffffffffffffffffffffffffffff1663156e29f6846115148573ffffffffffffffffffffffffffffffffffffffff1690565b6040517fffffffff0000000000000000000000000000000000000000000000000000000060e085901b16815273ffffffffffffffffffffffffffffffffffffffff90921660048301526024820152604481018490526064015f604051808303815f87803b158015611583575f80fd5b505af1158015611595573d5f803e3d5ffd5b50505073ffffffffffffffffffffffffffffffffffffffff8085165f90815260076020908152604080832093871683529290522061061991506106148361176e565b5f6115e4338685856128b4565b73ffffffffffffffffffffffffffffffffffffffff85165f908152602081815260408083208684529091529020548281101561164c576040517ff4d678b800000000000000000000000000000000000000000000000000000000815260040160405180910390fd5b73ffffffffffffffffffffffffffffffffffffffff8087165f90815260208181526040808320888452825280832094879003909455918716815280825282812086825290915290812080548492906116a5908490614965565b9091555060019695505050505050565b5f7f8000000000000000000000000000000000000000000000000000000000000000821061170f576040517f35278d1200000000000000000000000000000000000000000000000000000000815260040160405180910390fd5b5090565b5f825c816117218483614978565b905061172d8582612a08565b811515811515039250825f14611750576008805c9061174e90858301612a08565b505b505092915050565b611763848383612a0f565b610619838383612aad565b5f7f80000000000000000000000000000000000000000000000000000000000000008211156117c9576040517f35278d1200000000000000000000000000000000000000000000000000000000815260040160405180910390fd5b505f0390565b60405181606052826040528360601b602c526f23b872dd000000000000000000000000600c5260205f6064601c5f895af13d1560015f5114171661181a57637939f4245f526004601cfd5b5f60605260405250505050565b5f6106b161183683855c614965565b91508382612a08565b81601452806034526fa9059cbb0000000000000000000000005f5260205f604460105f875af13d1560015f5114171661187f576390b8ec185f526004601cfd5b5f603452505050565b5f6106b161183683855c614997565b604080518082019091525f81526060602082015243600b54036118e6576040517fd8a6b89b00000000000000000000000000000000000000000000000000000000815260040160405180910390fd5b43600b819055505f835f815181106119005761190061490b565b602002602001015190505f600190505b84518110156119a5575f85828151811061192c5761192c61490b565b602002602001015190508273ffffffffffffffffffffffffffffffffffffffff168173ffffffffffffffffffffffffffffffffffffffff161161199b576040517f2612def000000000000000000000000000000000000000000000000000000000815260040160405180910390fd5b9150600101611910565b505f6119b18551612af4565b90505f5b8451811015611a06575f8582815181106119d1576119d161490b565b602002602001015190506119fd815f01518260200151836040015186612b76909392919063ffffffff16565b506001016119b5565b506040518060400160405280828152602001868152509250505092915050565b5f5b81518110156107eb575f3073ffffffffffffffffffffffffffffffffffffffff16838381518110611a5b57611a5b61490b565b6020026020010151604051611a7091906149aa565b5f604051808303815f865af19150503d805f8114611aa9576040519150601f19603f3d011682016040523d82523d5f602084013e611aae565b606091505b5050905080611abb575f80fd5b50600101611a28565b5f5b81518110156107eb575f828281518110611ae257611ae261490b565b602002602001015190505f611b04826040015186612bf290919063ffffffff16565b90505f611b1e836080015187612bf290919063ffffffff16565b90505f611b2c848484612c27565b5f818152600d60205260409020909150805c15611b75576040517f8a2ef11600000000000000000000000000000000000000000000000000000000815260040160405180910390fd5b611b80816001612a08565b611b9d856101200151611b928461279e565b876101400151612caf565b611bd3576040517f8baa579f00000000000000000000000000000000000000000000000000000000815260040160405180910390fd5b60e085015173ffffffffffffffffffffffffffffffffffffffff1615611cd65760e08501516101208601516101008701516040517f7407905c000000000000000000000000000000000000000000000000000000008152638bf86fa39373ffffffffffffffffffffffffffffffffffffffff1692637407905c92611c59926004016149c5565b6020604051808303815f875af1158015611c75573d5f803e3d5ffd5b505050506040513d601f19601f82011682018060405250810190611c9991906149f3565b63ffffffff1614611cd6576040517ff959fdae00000000000000000000000000000000000000000000000000000000815260040160405180910390fd5b611cee856101200151866060015186885f0151612db9565b611d078561012001518660a00151858860200151612edc565b505060019093019250611ac6915050565b5f5b81518110156107eb575f828281518110611d3657611d3661490b565b602002602001015190505f611d618260c001518360800151875f0151612ff19092919063ffffffff16565b90508160600151811015611da1576040517f8e1edfa400000000000000000000000000000000000000000000000000000000815260040160405180910390fd5b5f611db9836080015187612bf290919063ffffffff16565b90505f611dd38460c0015188612bf290919063ffffffff16565b90505f611de185848461302b565b9050611e00856101c00151611df58361279e565b876101e00151612caf565b611e36576040517f8baa579f00000000000000000000000000000000000000000000000000000000815260040160405180910390fd5b600185516001811115611e4b57611e4b614a16565b03611ea857846101200151421115611e8f576040517f203d82d800000000000000000000000000000000000000000000000000000000815260040160405180910390fd5b611ea3856101c001518661010001516131a8565b611efb565b5f818152600d60205260409020805c15611eee576040517f8a2ef11600000000000000000000000000000000000000000000000000000000815260040160405180910390fd5b611ef9816001612a08565b505b61016085015173ffffffffffffffffffffffffffffffffffffffff1615612000576101608501516101c08601516101808701516040517f7407905c000000000000000000000000000000000000000000000000000000008152638bf86fa39373ffffffffffffffffffffffffffffffffffffffff1692637407905c92611f83926004016149c5565b6020604051808303815f875af1158015611f9f573d5f803e3d5ffd5b505050506040513d601f19601f82011682018060405250810190611fc391906149f3565b63ffffffff1614612000576040517ff959fdae00000000000000000000000000000000000000000000000000000000815260040160405180910390fd5b5f8061200c8787613217565b91509150612025876101c001518860a001518785612db9565b61203a876101c001518860e001518684612edc565b505060019095019450611d1a9350505050565b8273ffffffffffffffffffffffffffffffffffffffff1663f3cd914c61211a30612083865f015186612bf290919063ffffffff16565b6020870151612093908790612bf2565b6040805160a080820183525f80835260208301819052828401819052606083018190526080830152825190810190925290808473ffffffffffffffffffffffffffffffffffffffff1681526020018373ffffffffffffffffffffffffffffffffffffffff90811682525f6020830152603c6040830152861660609091015290509392505050565b604051806060016040528086604001511515815260200161213e876060015161176e565b815260200186604001516121665773fffd8963efd1fc6a506488495d951d5263988d2561216d565b6401000276a45b73ffffffffffffffffffffffffffffffffffffffff168152506040518363ffffffff1660e01b81526004016121a3929190614a43565b6020604051808303815f875af11580156121bf573d5f803e3d5ffd5b505050506040513d601f19601f820116820180604052508101906106199190613fd6565b80515f906121f2908490612bf2565b90505f61220c836020015185612bf290919063ffffffff16565b90505f6122a661229f3085856040805160a080820183525f80835260208301819052828401819052606083018190526080830152825190810190925290808473ffffffffffffffffffffffffffffffffffffffff1681526020018373ffffffffffffffffffffffffffffffffffffffff90811682525f6020830152603c6040830152861660609091015290509392505050565b60a0902090565b90505f6122f56122ec73ffffffffffffffffffffffffffffffffffffffff7f00000000000000000000000000000000000000000000000000000000000000001684613330565b60a01c60020b90565b90505f805f87608001516fffffffffffffffffffffffffffffffff1690505f886040015190508460020b8160020b136124c2575f805b81801561233c57508a60a001515181105b15612394575f8b60a00151828061235290614acc565b9350815181106123645761236461490b565b60200260200101519050808761237a9190614965565b965061238681866133cf565b6123909087614965565b9550505b5f6123b06123a3600186614b03565b603c5f8183071291050390565b9050600281900b60081d81612406816124007f000000000000000000000000000000000000000000000000000000000000000073ffffffffffffffffffffffffffffffffffffffff168e866133f1565b906134a7565b9095509050612415828261356f565b95505050508660020b8360020b136124bb5781156124b6575f888152600460209081526040808320600287900b845290915281208054879290612459908490614965565b909155505f90506124a173ffffffffffffffffffffffffffffffffffffffff7f0000000000000000000000000000000000000000000000000000000000000000168a8661359a565b600f0b91506124b290508582613670565b9450505b61232b565b5050612646565b5f805b5f6124d46123a3856001614b44565b9050600281900b60081d81612524816124007f000000000000000000000000000000000000000000000000000000000000000073ffffffffffffffffffffffffffffffffffffffff168e866133f1565b9095509050612533828261356f565b95505050508660020b8360020b13156126435781801561255757508a60a001515181105b156125af575f8b60a00151828061256d90614acc565b93508151811061257f5761257f61490b565b6020026020010151905080876125959190614965565b96506125a181866133cf565b6125ab9087614965565b9550505b811561263e575f888152600460209081526040808320600287900b8452909152812080548792906125e1908490614965565b909155505f905061262973ffffffffffffffffffffffffffffffffffffffff7f0000000000000000000000000000000000000000000000000000000000000000168a8661359a565b600f0b915061263a9050858261368b565b9450505b6124c5565b50505b61268673ffffffffffffffffffffffffffffffffffffffff7f000000000000000000000000000000000000000000000000000000000000000016876136a6565b6fffffffffffffffffffffffffffffffff168214612705576040517f08c379a000000000000000000000000000000000000000000000000000000000815260206004820152600f60248201527f57524f4e475f4c4951554944495459000000000000000000000000000000000060448201526064015b60405180910390fd5b5f8681526005602052604081208054859290612722908490614965565b909155505073ffffffffffffffffffffffffffffffffffffffff88165f9081526009602052604090206127559085611888565b5050505050505050505050565b60085c1561279c576040517f2aaf97c200000000000000000000000000000000000000000000000000000000815260040160405180910390fd5b565b7f00000000000000000000000000000000000000000000000000000000000000007f000000000000000000000000000000000000000000000000000000000000000030147f00000000000000000000000000000000000000000000000000000000000000004614166128915750604080517f8b73c3c69bb8fe3d512ecc4cf759cc79239f7b179b0ffacaa9a75d522b39400f81527f000000000000000000000000000000000000000000000000000000000000000060208201527f00000000000000000000000000000000000000000000000000000000000000009181019190915246606082015230608082015260a090205b6719010000000000005f5280601a5281603a52604260182090505f603a52919050565b73ffffffffffffffffffffffffffffffffffffffff8084165f9081526002602090815260408083209388168352929052205460ff166106195773ffffffffffffffffffffffffffffffffffffffff8084165f9081526001602090815260408083209388168352928152828220858352905220547effffffffffffffffffffffffffffffffffffffffffffffffffffffffffffff8111156129545750610619565b818110801561298f57508473ffffffffffffffffffffffffffffffffffffffff168473ffffffffffffffffffffffffffffffffffffffff1614155b156129c6576040517fdeda903000000000000000000000000000000000000000000000000000000000815260040160405180910390fd5b73ffffffffffffffffffffffffffffffffffffffff939093165f9081526001602090815260408083203384528252808320948352939052919091209103905550565b80825d5050565b73ffffffffffffffffffffffffffffffffffffffff83165f9081526020818152604080832085845290915290205481811015612a77576040517ff4d678b800000000000000000000000000000000000000000000000000000000815260040160405180910390fd5b73ffffffffffffffffffffffffffffffffffffffff9093165f908152602081815260408083209483529390529190912091039055565b73ffffffffffffffffffffffffffffffffffffffff83165f9081526020818152604080832085845290915281208054839290612aea908490614965565b9091555050505050565b5f6107d0821115612b31576040517f0949696b00000000000000000000000000000000000000000000000000000000815260040160405180910390fd5b60405160027fffffffffffffffffffffffffffffffffffffffffffffffffffffffffffffffff8401840204906021820280368337810160405260181b90921792915050565b612b81848484613725565b5f612bbb61ffff85165b61ffff1660027fffffffffffffffffffffffffffffffffffffffffffffffffffffffffffffffff82019091020490565b90508460181c8382016021028101905080515f1a15612be15763faa3eb245f526004601cfd5b600181536001019190915250505050565b5f8260200151612c038361ffff1690565b61ffff1681518110612c1757612c1761490b565b6020026020010151905092915050565b5f7f9cbbebb9994d174bd751b1dc4daa5a49b0499961981537e17dc729996bf53596845f01518560200151858760600151868960a001518a60c00151612c768c60e001518d6101000151613795565b43604051602001612c909a99989796959493929190614bbe565b6040516020818303038152906040528051906020012090509392505050565b73ffffffffffffffffffffffffffffffffffffffff909216915f83156106c857604051835f5260208301516040526040835103612d28576040830151601b8160ff1c016020528060011b60011c606052506020600160805f60015afa805186183d1517612d2657505f6060526040525060016106c8565b505b6041835103612d6b5760608301515f1a60205260408301516060526020600160805f60015afa805186183d1517612d6957505f6060526040525060016106c8565b505b5f60605280604052631626ba7e60e01b808252846004830152602482016040815284516020018060448501828860045afa505060208160443d01858a5afa9051909114169150509392505050565b6002836002811115612dcd57612dcd614a16565b03612e2757612df38473ffffffffffffffffffffffffffffffffffffffff841683612a0f565b73ffffffffffffffffffffffffffffffffffffffff82165f908152600960205260409020612e219082611827565b50610619565b6001836002811115612e3b57612e3b614a16565b03612e7e5773ffffffffffffffffffffffffffffffffffffffff8085165f908152600760209081526040808320938616835292905220612e21906106148361176e565b5f836002811115612e9157612e91614a16565b03612ed45773ffffffffffffffffffffffffffffffffffffffff8085165f908152600660209081526040808320938616835292905220612e21906106148361176e565b610619614c38565b6002836002811115612ef057612ef0614a16565b03612f4457612f168473ffffffffffffffffffffffffffffffffffffffff841683612aad565b73ffffffffffffffffffffffffffffffffffffffff82165f908152600960205260409020612e219082611888565b6001836002811115612f5857612f58614a16565b03612f9b5773ffffffffffffffffffffffffffffffffffffffff8085165f908152600760209081526040808320938616835292905220612e2190610614836116b5565b5f836002811115612fae57612fae614a16565b03612ed45773ffffffffffffffffffffffffffffffffffffffff8085165f908152600660209081526040808320938616835292905220612e2190610614836116b5565b5f61ffff828116908416116130185761301361300e858486613809565b613855565b613023565b613023848484613809565b949350505050565b5f60018451600181111561304157613041614a16565b036130f9577ff62af20d70f9b07c8fe991154a18475a61a5cce64f22d93b78f98fc72acb3d8d6130858560200151600281111561308057613080614a16565b613877565b85604001518660600151868860a00151878a60e001518b61014001516130b58d61016001518e6101800151613795565b8d61010001518e61012001516040516020016130dc9c9b9a99989796959493929190614c65565b6040516020818303038152906040528051906020012090506106c8565b5f8451600181111561310d5761310d614a16565b03613197577fad5d390347165c93fb6232ef1a95449fd81131071325f0c860574c72a90bcaa961314c8560200151600281111561308057613080614a16565b85604001518660600151868860a00151878a60e001518b610140015161317c8d61016001518e6101800151613795565b436040516020016130dc9b9a99989796959493929190614cfa565b61319f614c38565b505f9392505050565b600c81815263daa050e96004525f838152601f9091209050600160ff83161b5f816131d1845490565b1890508181165f0361320f576040517f8cb8887200000000000000000000000000000000000000000000000000000000815260040160405180910390fd5b8083556109a3565b600c545f908190818560200151600281111561323557613235614a16565b03613268576040850151925061324b83856133cf565b91506132578282613946565b6132619083614997565b9150613328565b60018560200151600281111561328057613280614a16565b036132b357604085015191506132968285613946565b92506132a28382613946565b6132ac9084614965565b9250613328565b6002856020015160028111156132cb576132cb614a16565b0361332057846101a0015192508460400151831115613316576040517f4418233100000000000000000000000000000000000000000000000000000000815260040160405180910390fd5b61324b83856133cf565b613328614c38565b509250929050565b5f81815260066020526040812081906040517f1e2eaeaf0000000000000000000000000000000000000000000000000000000081526004810182905290915073ffffffffffffffffffffffffffffffffffffffff851690631e2eaeaf90602401602060405180830381865afa1580156133ab573d5f803e3d5ffd5b505050506040513d601f19601f820116820180604052508101906130239190613fd6565b5f816133e76b033b2e3c9fd0803ce800000085614d7c565b6106c89190614d93565b5f828152600660209081526040808320848452600501909152812081906040517f1e2eaeaf0000000000000000000000000000000000000000000000000000000081526004810182905290915073ffffffffffffffffffffffffffffffffffffffff861690631e2eaeaf90602401602060405180830381865afa15801561347a573d5f803e3d5ffd5b505050506040513d601f19601f8201168201806040525081019061349e9190613fd6565b95945050505050565b5f805f8360ff0390505f6135488260ff1687901b7f0706060506020504060203020504030106050205030304010505030400000000601f6f8421084210842108cc6318c6db6d54be831560081b6fffffffffffffffffffffffffffffffff851160071b1784811c67ffffffffffffffff1060061b1784811c63ffffffff1060051b1784811c61ffff1060041b1784811c60ff1060031b1793841c1c161a1790565b905080610100141593508361355d575f613564565b8160ff1681035b925050509250929050565b5f603c60ff8316613586600186900b610100614dcb565b6135909190614b44565b6106c89190614dcb565b5f8281526006602090815260408083208484526004019091528120819081906040517f1e2eaeaf000000000000000000000000000000000000000000000000000000008152600481018290529091505f9073ffffffffffffffffffffffffffffffffffffffff881690631e2eaeaf90602401602060405180830381865afa158015613627573d5f803e3d5ffd5b505050506040513d601f19601f8201168201806040525081019061364b9190613fd6565b6fffffffffffffffffffffffffffffffff81169860809190911d975095505050505050565b8082038281115f8312146106b15763c9654ed45f526004601cfd5b8181018281115f8313146106b15763c9654ed45f526004601cfd5b5f81815260066020526040812081906040517f1e2eaeaf0000000000000000000000000000000000000000000000000000000081526003820160048201529091505f9073ffffffffffffffffffffffffffffffffffffffff861690631e2eaeaf90602401602060405180830381865afa15801561347a573d5f803e3d5ffd5b61ffff81811683821690811115918516111517156107eb576040517ffa9f860600000000000000000000000000000000000000000000000000000000815261ffff8281168482168181111560048501529186168210156024840152604483019190915260648201526084016126fc565b5f73ffffffffffffffffffffffffffffffffffffffff83166137d857507fc5d2460186f7233c927e7db2dcc703c0e500b653ca82273b7bfad8045d85a4706106b1565b82826040516020016137eb929190614df1565b60405160208183030381529060405280519060200120905092915050565b5f613815848484613725565b5f61382361ffff8516612b8b565b90508460181c8382016021028101905080515f1a613848576327515afa5f526004601cfd5b6001015195945050505050565b5f6106b182760a70c3c40a64e6c51999090b65f67d9240000000000000614d93565b5f8082600281111561388b5761388b614a16565b036138b757507f9d8debe476c29a31917f79e56e3efa8673aba3b7df7e512822430494d1bbf71b919050565b60018260028111156138cb576138cb614a16565b036138f757507f1b276e4b7edbea20a3ffd1a638ea69930e84d1634d12ba5e47b88b79377f117f919050565b600282600281111561390b5761390b614a16565b0361393757507f1b276e4b7edbea20a3ffd1a638ea69930e84d1634d12ba5e47b88b79377f117f919050565b61393f614c38565b505f919050565b5f6b033b2e3c9fd0803ce80000006133e78385614d7c565b803573ffffffffffffffffffffffffffffffffffffffff81168114613981575f80fd5b919050565b5f8060408385031215613997575f80fd5b6139a08361395e565b946020939093013593505050565b5f805f606084860312156139c0575f80fd5b6139c98461395e565b92506139d76020850161395e565b9150604084013590509250925092565b5f602082840312156139f7575f80fd5b81357fffffffff00000000000000000000000000000000000000000000000000000000811681146106c8575f80fd5b5f805f60608486031215613a38575f80fd5b613a418461395e565b95602085013595506040909401359392505050565b5f8060208385031215613a67575f80fd5b823567ffffffffffffffff80821115613a7e575f80fd5b818501915085601f830112613a91575f80fd5b813581811115613a9f575f80fd5b866020828501011115613ab0575f80fd5b60209290920196919550909350505050565b5f805f8060808587031215613ad5575f80fd5b613ade8561395e565b9350613aec6020860161395e565b9250613afa6040860161395e565b9396929550929360600135925050565b8015158114613b17575f80fd5b50565b5f8060408385031215613b2b575f80fd5b613b348361395e565b91506020830135613b4481613b0a565b809150509250929050565b5f60208284031215613b5f575f80fd5b6106c88261395e565b5f5b83811015613b82578181015183820152602001613b6a565b50505f910152565b5f8151808452613ba1816020860160208601613b68565b601f017fffffffffffffffffffffffffffffffffffffffffffffffffffffffffffffffe0169290920160200192915050565b7fff00000000000000000000000000000000000000000000000000000000000000881681525f602060e06020840152613c0f60e084018a613b8a565b8381036040850152613c21818a613b8a565b6060850189905273ffffffffffffffffffffffffffffffffffffffff8816608086015260a0850187905284810360c0860152855180825260208088019350909101905f5b81811015613c8157835183529284019291840191600101613c65565b50909c9b505050505050505050505050565b602081525f6106c86020830184613b8a565b5f8060208385031215613cb6575f80fd5b823567ffffffffffffffff80821115613ccd575f80fd5b818501915085601f830112613ce0575f80fd5b813581811115613cee575f80fd5b8660208260051b8501011115613ab0575f80fd5b5f8060408385031215613d13575f80fd5b613d1c8361395e565b9150613d2a6020840161395e565b90509250929050565b5f60208284031215613d43575f80fd5b5035919050565b5f805f8060808587031215613d5d575f80fd5b613d668561395e565b9350613d746020860161395e565b93969395505050506040820135916060013590565b60208152816020820152818360408301375f818301604090810191909152601f9092017fffffffffffffffffffffffffffffffffffffffffffffffffffffffffffffffe0160101919050565b7f4e487b71000000000000000000000000000000000000000000000000000000005f52604160045260245ffd5b6040516060810167ffffffffffffffff81118282101715613e2557613e25613dd5565b60405290565b604051610160810167ffffffffffffffff81118282101715613e2557613e25613dd5565b6040516080810167ffffffffffffffff81118282101715613e2557613e25613dd5565b604051610200810167ffffffffffffffff81118282101715613e2557613e25613dd5565b60405160c0810167ffffffffffffffff81118282101715613e2557613e25613dd5565b604051601f82017fffffffffffffffffffffffffffffffffffffffffffffffffffffffffffffffe016810167ffffffffffffffff81118282101715613f0057613f00613dd5565b604052919050565b5f67ffffffffffffffff821115613f2157613f21613dd5565b50601f017fffffffffffffffffffffffffffffffffffffffffffffffffffffffffffffffe01660200190565b5f60208284031215613f5d575f80fd5b815167ffffffffffffffff811115613f73575f80fd5b8201601f81018413613f83575f80fd5b8051613f96613f9182613f08565b613eb9565b818152856020838501011115613faa575f80fd5b61349e826020830160208601613b68565b5f60208284031215613fcb575f80fd5b81516106c881613b0a565b5f60208284031215613fe6575f80fd5b5051919050565b5f67ffffffffffffffff82111561400657614006613dd5565b5060051b60200190565b5f82601f83011261401f575f80fd5b8135602061402f613f9183613fed565b8083825260208201915060208460051b870101935086841115614050575f80fd5b602086015b84811015614073576140668161395e565b8352918301918301614055565b509695505050505050565b803561ffff81168114613981575f80fd5b5f82601f83011261409e575f80fd5b813560206140ae613f9183613fed565b828152606092830285018201928282019190878511156140cc575f80fd5b8387015b8581101561411f5781818a0312156140e6575f80fd5b6140ee613e02565b6140f78261407e565b815261410486830161407e565b818701526040828101359082015284529284019281016140d0565b5090979650505050505050565b5f82601f83011261413b575f80fd5b8135614149613f9182613f08565b81815284602083860101111561415d575f80fd5b816020850160208301375f918101602001919091529392505050565b5f82601f830112614188575f80fd5b81356020614198613f9183613fed565b82815260059290921b840181019181810190868411156141b6575f80fd5b8286015b8481101561407357803567ffffffffffffffff8111156141d8575f80fd5b6141e68986838b010161412c565b8452509183019183016141ba565b803560038110613981575f80fd5b5f82601f830112614211575f80fd5b81356020614221613f9183613fed565b82815260059290921b8401810191818101908684111561423f575f80fd5b8286015b8481101561407357803567ffffffffffffffff80821115614262575f80fd5b8189019150610160807fffffffffffffffffffffffffffffffffffffffffffffffffffffffffffffffe0848d0301121561429a575f80fd5b6142a2613e2b565b8784013581526040808501358983015260606142bf81870161407e565b82840152608091506142d28287016141f4565b9083015260a06142e386820161407e565b8284015260c091506142f68287016141f4565b9083015260e061430786820161395e565b82840152610100915061431b82870161395e565b908301526101208581013585811115614332575f80fd5b6143408f8c838a010161412c565b8385015250610140915061435582870161395e565b9083015291840135918383111561436a575f80fd5b6143788d8a8588010161412c565b908201528652505050918301918301614243565b5f82601f83011261439b575f80fd5b813560206143ab613f9183613fed565b82815260079290921b840181019181810190868411156143c9575f80fd5b8286015b8481101561407357608081890312156143e4575f80fd5b6143ec613e4f565b6143f58261407e565b815261440285830161407e565b8582015260408083013561441581613b0a565b90820152606082810135908201528352918301916080016143cd565b803560028110613981575f80fd5b803567ffffffffffffffff81168114613981575f80fd5b5f82601f830112614465575f80fd5b81356020614475613f9183613fed565b82815260059290921b84018101918181019086841115614493575f80fd5b8286015b8481101561407357803567ffffffffffffffff808211156144b6575f80fd5b8189019150610200807fffffffffffffffffffffffffffffffffffffffffffffffffffffffffffffffe0848d030112156144ee575f80fd5b6144f6613e72565b614501888501614431565b815260406145108186016141f4565b89830152606080860135828401526080915081860135818401525060a061453881870161407e565b8284015260c0915061454b8287016141f4565b9083015260e061455c86820161407e565b8284015261010091506145708287016141f4565b9083015261012061458286820161443f565b8284015261014091508186013581840152506101606145a281870161395e565b8284015261018091506145b682870161395e565b908301526101a085810135858111156145cd575f80fd5b6145db8f8c838a010161412c565b83850152506101c091508186013581840152506101e06145fc81870161395e565b83830152928501359284841115614611575f80fd5b61461f8e8b8689010161412c565b90830152508652505050918301918301614497565b80356fffffffffffffffffffffffffffffffff81168114613981575f80fd5b5f82601f830112614662575f80fd5b81356020614672613f9183613fed565b8083825260208201915060208460051b870101935086841115614693575f80fd5b602086015b848110156140735780358352918301918301614698565b5f82601f8301126146be575f80fd5b813560206146ce613f9183613fed565b82815260059290921b840181019181810190868411156146ec575f80fd5b8286015b8481101561407357803567ffffffffffffffff8082111561470f575f80fd5b818901915060c0807fffffffffffffffffffffffffffffffffffffffffffffffffffffffffffffffe0848d03011215614746575f80fd5b61474e613e96565b61475988850161407e565b8152604061476881860161407e565b898301526060808601358060020b8114614780575f80fd5b8083850152506080915081860135818401525060a06147a0818701614634565b838301529285013592848411156147b5575f80fd5b6147c38e8b86890101614653565b908301525086525050509183019183016146f0565b5f805f805f805f80610100898b0312156147f0575f80fd5b883567ffffffffffffffff80821115614807575f80fd5b6148138c838d01614010565b995060208b0135915080821115614828575f80fd5b6148348c838d0161408f565b985060408b0135915080821115614849575f80fd5b6148558c838d01614179565b975060608b013591508082111561486a575f80fd5b6148768c838d01614202565b965060808b013591508082111561488b575f80fd5b6148978c838d0161438c565b955060a08b01359150808211156148ac575f80fd5b6148b88c838d01614456565b945060c08b01359150808211156148cd575f80fd5b6148d98c838d01614179565b935060e08b01359150808211156148ee575f80fd5b506148fb8b828c016146af565b9150509295985092959890939650565b7f4e487b71000000000000000000000000000000000000000000000000000000005f52603260045260245ffd5b7f4e487b71000000000000000000000000000000000000000000000000000000005f52601160045260245ffd5b808201808211156106b1576106b1614938565b8082018281125f83128015821682158216171561175057611750614938565b818103818111156106b1576106b1614938565b5f82516149bb818460208701613b68565b9190910192915050565b73ffffffffffffffffffffffffffffffffffffffff83168152604060208201525f6130236040830184613b8a565b5f60208284031215614a03575f80fd5b815163ffffffff811681146106c8575f80fd5b7f4e487b71000000000000000000000000000000000000000000000000000000005f52602160045260245ffd5b5f61012073ffffffffffffffffffffffffffffffffffffffff80865116845280602087015116602085015262ffffff6040870151166040850152606086015160020b60608501528060808701511660808501528451151560a0850152602085015160c08501528060408601511660e0850152508061010084015261349e8184015f815260200190565b5f7fffffffffffffffffffffffffffffffffffffffffffffffffffffffffffffffff8203614afc57614afc614938565b5060010190565b600282810b9082900b037fffffffffffffffffffffffffffffffffffffffffffffffffffffffffff8000008112627fffff821317156106b1576106b1614938565b600281810b9083900b01627fffff81137fffffffffffffffffffffffffffffffffffffffffffffffffffffffffff800000821217156106b1576106b1614938565b60038110614bba577f4e487b71000000000000000000000000000000000000000000000000000000005f52602160045260245ffd5b9052565b5f610140820190508b82528a602083015289604083015273ffffffffffffffffffffffffffffffffffffffff808a166060840152614bff608084018a614b85565b80881660a0840152614c1460c0840188614b85565b9490941660e082015261010081019290925261012090910152979650505050505050565b7f4e487b71000000000000000000000000000000000000000000000000000000005f52600160045260245ffd5b5f610180820190508d82528c60208301528b60408301528a606083015273ffffffffffffffffffffffffffffffffffffffff808b166080840152614cac60a084018b614b85565b80891660c0840152614cc160e0840189614b85565b9590951661010082015261012081019390935267ffffffffffffffff919091166101408301526101609091015298975050505050505050565b5f610160820190508c82528b60208301528a604083015289606083015273ffffffffffffffffffffffffffffffffffffffff808a166080840152614d4160a084018a614b85565b80881660c0840152614d5660e0840188614b85565b949094166101008201526101208101929092526101409091015298975050505050505050565b80820281158282048414176106b1576106b1614938565b5f82614dc6577f4e487b71000000000000000000000000000000000000000000000000000000005f52601260045260245ffd5b500490565b5f8260020b8260020b028060020b9150808214614dea57614dea614938565b5092915050565b7fffffffffffffffffffffffffffffffffffffffff0000000000000000000000008360601b1681525f8251614e2d816014850160208701613b68565b91909101601401939250505056fea164736f6c6343000818000a","linkReferences":{}},"methodIdentifiers":{"allUniV4FreeToUniV4Delta(address)":"701ff612","allowance(address,address,uint256)":"598af9e7","approve(address,uint256,uint256)":"426a8493","balanceOf(address,uint256)":"00fdd58e","burnV4(address,address,uint256)":"01cbb715","eip712Domain()":"84b0196e","execute(bytes)":"09c5eabe","freeToUniV4Free(address,uint256)":"6bc7bbc3","halfSpreadRay()":"97125bee","hashTyped(bytes32)":"c0999390","isOperator(address,address)":"b6363cf2","lastBlockUpdated()":"760f5f27","mintV4(address,address,uint256)":"e22dfb82","pullLiquid(address,address,uint256)":"6a3ad7e2","pullToV4(address,address,uint256)":"d6910df9","pushFromV4(address,address,uint256)":"af2c0868","pushLiquid(address,address,uint256)":"dc323671","saveNodeFee(address,uint256)":"9bb0094c","setOperator(address,bool)":"558a7297","supportsInterface(bytes4)":"01ffc9a7","transfer(address,uint256,uint256)":"095bcdb6","transferFrom(address,address,uint256,uint256)":"fe99049a","uniV4DeltaToFree(address,uint256)":"c8436c00","unlockCallback(bytes)":"91dd7346","updateNodes(address[])":"924ca5e1","userToUserLiquidTransfer(address,address,address,uint256)":"ae489985","userToUserV4ClaimTransfer(address,address,address,uint256)":"1845bfa6"},"id":108}